{
  "contractName": "EventFactory",
  "abi": [
    {
      "anonymous": false,
      "inputs": [
        {
          "indexed": false,
          "internalType": "address",
          "name": "contractAddress",
          "type": "address"
        }
      ],
      "name": "NewEvent",
      "type": "event"
    },
    {
      "inputs": [],
      "name": "_owner",
      "outputs": [
        {
          "internalType": "address",
          "name": "",
          "type": "address"
        }
      ],
      "stateMutability": "view",
      "type": "function"
    },
    {
      "inputs": [],
      "name": "allEvents",
      "outputs": [
        {
          "internalType": "contract Event[]",
          "name": "",
          "type": "address[]"
        }
      ],
      "stateMutability": "view",
      "type": "function"
    },
    {
      "inputs": [
        {
          "internalType": "string",
          "name": "name",
          "type": "string"
        },
        {
          "internalType": "string",
          "name": "symbol",
          "type": "string"
        },
        {
          "components": [
            {
              "internalType": "string",
              "name": "name",
              "type": "string"
            },
            {
              "internalType": "string",
              "name": "description",
              "type": "string"
            },
            {
              "internalType": "enum BlocTick.TicketType",
              "name": "ticket_type",
              "type": "uint8"
            },
            {
              "internalType": "uint256",
              "name": "quantity_available",
              "type": "uint256"
            },
            {
              "internalType": "uint256",
              "name": "price",
              "type": "uint256"
            }
          ],
          "internalType": "struct BlocTick.Ticket[]",
          "name": "tickets",
          "type": "tuple[]"
        }
      ],
      "name": "addEvent",
      "outputs": [],
      "stateMutability": "nonpayable",
      "type": "function"
    },
    {
      "inputs": [
        {
          "internalType": "uint256",
          "name": "fee",
          "type": "uint256"
        }
      ],
      "name": "setPlatformPercent",
      "outputs": [],
      "stateMutability": "nonpayable",
      "type": "function"
    },
    {
      "inputs": [
        {
          "internalType": "address",
          "name": "eventContract",
          "type": "address"
        },
        {
          "components": [
            {
              "internalType": "string",
              "name": "purchaseId",
              "type": "string"
            },
            {
              "internalType": "uint256",
              "name": "ticketId",
              "type": "uint256"
            },
            {
              "internalType": "string",
              "name": "tokenURI",
              "type": "string"
            },
            {
              "internalType": "address",
              "name": "buyer",
              "type": "address"
            },
            {
              "internalType": "uint256",
              "name": "cost",
              "type": "uint256"
            }
          ],
          "internalType": "struct BlocTick.TicketPurchase[]",
          "name": "purchases",
          "type": "tuple[]"
        }
      ],
      "name": "mintTickets",
      "outputs": [],
      "stateMutability": "payable",
      "type": "function"
    }
  ],
  "bytecode": "0x6080604052600a60025534801561001557600080fd5b50615f53806100256000396000f3fe608060405260043610620000505760003560e01c806314d7c375146200005557806396f229ca1462000085578063b2bdfa7b14620000b3578063e08aa14914620000e3578063ff001b321462000103575b600080fd5b3480156200006257600080fd5b506200006d62000131565b6040516200007c9190620006f4565b60405180910390f35b3480156200009257600080fd5b50620000b16004803603810190620000ab919062000ad0565b620001c1565b005b348015620000c057600080fd5b50620000cb62000315565b604051620000da919062000bae565b60405180910390f35b620001016004803603810190620000fb919062000dcc565b62000339565b005b3480156200011057600080fd5b506200012f600480360381019062000129919062000e32565b62000503565b005b60606001805480602002602001604051908101604052809291908181526020018280548015620001b757602002820191906000526020600020905b8160009054906101000a900473ffffffffffffffffffffffffffffffffffffffff1673ffffffffffffffffffffffffffffffffffffffff16815260200190600101908083116200016c575b5050505050905090565b6000838333604051620001d4906200059e565b620001e29392919062000ef7565b604051809103906000f080158015620001ff573d6000803e3d6000fd5b5090508073ffffffffffffffffffffffffffffffffffffffff16633d181c7e83336040518363ffffffff1660e01b81526004016200023f9291906200117c565b600060405180830381600087803b1580156200025a57600080fd5b505af11580156200026f573d6000803e3d6000fd5b505050506001819080600181540180825580915050600190039060005260206000200160009091909190916101000a81548173ffffffffffffffffffffffffffffffffffffffff021916908373ffffffffffffffffffffffffffffffffffffffff1602179055507f0227e3b2fb10ea87b3ce0fe9b23554ad992c666dd128c13c0a6ef2d73dd80ba08160405162000307919062000bae565b60405180910390a150505050565b60008054906101000a900473ffffffffffffffffffffffffffffffffffffffff1681565b60008290508073ffffffffffffffffffffffffffffffffffffffff1663c63197ce836040518263ffffffff1660e01b815260040162000379919062001318565b600060405180830381600087803b1580156200039457600080fd5b505af1158015620003a9573d6000803e3d6000fd5b505050506000346064600254620003c191906200139a565b620003cd9190620013d2565b90508173ffffffffffffffffffffffffffffffffffffffff1663b2bdfa7b6040518163ffffffff1660e01b8152600401602060405180830381865afa1580156200041b573d6000803e3d6000fd5b505050506040513d601f19601f820116820180604052508101906200044191906200144a565b73ffffffffffffffffffffffffffffffffffffffff166108fc82346200046891906200147c565b9081150290604051600060405180830381858888f1935050505015801562000494573d6000803e3d6000fd5b5060008054906101000a900473ffffffffffffffffffffffffffffffffffffffff1673ffffffffffffffffffffffffffffffffffffffff166108fc829081150290604051600060405180830381858888f19350505050158015620004fc573d6000803e3d6000fd5b5050505050565b60008054906101000a900473ffffffffffffffffffffffffffffffffffffffff1673ffffffffffffffffffffffffffffffffffffffff163373ffffffffffffffffffffffffffffffffffffffff161462000594576040517f08c379a00000000000000000000000000000000000000000000000000000000081526004016200058b9062001507565b60405180910390fd5b8060028190555050565b6149f4806200152a83390190565b600081519050919050565b600082825260208201905092915050565b6000819050602082019050919050565b600073ffffffffffffffffffffffffffffffffffffffff82169050919050565b6000819050919050565b6000620006236200061d6200061784620005d8565b620005f8565b620005d8565b9050919050565b6000620006378262000602565b9050919050565b60006200064b826200062a565b9050919050565b6200065d816200063e565b82525050565b600062000671838362000652565b60208301905092915050565b6000602082019050919050565b60006200069782620005ac565b620006a38185620005b7565b9350620006b083620005c8565b8060005b83811015620006e7578151620006cb888262000663565b9750620006d8836200067d565b925050600181019050620006b4565b5085935050505092915050565b600060208201905081810360008301526200071081846200068a565b905092915050565b6000604051905090565b600080fd5b600080fd5b600080fd5b600080fd5b6000601f19601f8301169050919050565b7f4e487b7100000000000000000000000000000000000000000000000000000000600052604160045260246000fd5b620007818262000736565b810181811067ffffffffffffffff82111715620007a357620007a262000747565b5b80604052505050565b6000620007b862000718565b9050620007c6828262000776565b919050565b600067ffffffffffffffff821115620007e957620007e862000747565b5b620007f48262000736565b9050602081019050919050565b82818337600083830152505050565b6000620008276200082184620007cb565b620007ac565b90508281526020810184848401111562000846576200084562000731565b5b6200085384828562000801565b509392505050565b600082601f8301126200087357620008726200072c565b5b81356200088584826020860162000810565b91505092915050565b600067ffffffffffffffff821115620008ac57620008ab62000747565b5b602082029050602081019050919050565b600080fd5b600080fd5b600080fd5b60038110620008da57600080fd5b50565b600081359050620008ee81620008cc565b92915050565b6000819050919050565b6200090981620008f4565b81146200091557600080fd5b50565b6000813590506200092981620008fe565b92915050565b600060a08284031215620009485762000947620008c2565b5b6200095460a0620007ac565b9050600082013567ffffffffffffffff811115620009775762000976620008c7565b5b62000985848285016200085b565b600083015250602082013567ffffffffffffffff811115620009ac57620009ab620008c7565b5b620009ba848285016200085b565b6020830152506040620009d084828501620008dd565b6040830152506060620009e68482850162000918565b6060830152506080620009fc8482850162000918565b60808301525092915050565b600062000a1f62000a19846200088e565b620007ac565b9050808382526020820190506020840283018581111562000a455762000a44620008bd565b5b835b8181101562000a9357803567ffffffffffffffff81111562000a6e5762000a6d6200072c565b5b80860162000a7d89826200092f565b8552602085019450505060208101905062000a47565b5050509392505050565b600082601f83011262000ab55762000ab46200072c565b5b813562000ac784826020860162000a08565b91505092915050565b60008060006060848603121562000aec5762000aeb62000722565b5b600084013567ffffffffffffffff81111562000b0d5762000b0c62000727565b5b62000b1b868287016200085b565b935050602084013567ffffffffffffffff81111562000b3f5762000b3e62000727565b5b62000b4d868287016200085b565b925050604084013567ffffffffffffffff81111562000b715762000b7062000727565b5b62000b7f8682870162000a9d565b9150509250925092565b600062000b9682620005d8565b9050919050565b62000ba88162000b89565b82525050565b600060208201905062000bc5600083018462000b9d565b92915050565b62000bd68162000b89565b811462000be257600080fd5b50565b60008135905062000bf68162000bcb565b92915050565b600067ffffffffffffffff82111562000c1a5762000c1962000747565b5b602082029050602081019050919050565b600060a0828403121562000c445762000c43620008c2565b5b62000c5060a0620007ac565b9050600082013567ffffffffffffffff81111562000c735762000c72620008c7565b5b62000c81848285016200085b565b600083015250602062000c978482850162000918565b602083015250604082013567ffffffffffffffff81111562000cbe5762000cbd620008c7565b5b62000ccc848285016200085b565b604083015250606062000ce28482850162000be5565b606083015250608062000cf88482850162000918565b60808301525092915050565b600062000d1b62000d158462000bfc565b620007ac565b9050808382526020820190506020840283018581111562000d415762000d40620008bd565b5b835b8181101562000d8f57803567ffffffffffffffff81111562000d6a5762000d696200072c565b5b80860162000d79898262000c2b565b8552602085019450505060208101905062000d43565b5050509392505050565b600082601f83011262000db15762000db06200072c565b5b813562000dc384826020860162000d04565b91505092915050565b6000806040838503121562000de65762000de562000722565b5b600062000df68582860162000be5565b925050602083013567ffffffffffffffff81111562000e1a5762000e1962000727565b5b62000e288582860162000d99565b9150509250929050565b60006020828403121562000e4b5762000e4a62000722565b5b600062000e5b8482850162000918565b91505092915050565b600081519050919050565b600082825260208201905092915050565b60005b8381101562000ea057808201518184015260208101905062000e83565b8381111562000eb0576000848401525b50505050565b600062000ec38262000e64565b62000ecf818562000e6f565b935062000ee181856020860162000e80565b62000eec8162000736565b840191505092915050565b6000606082019050818103600083015262000f13818662000eb6565b9050818103602083015262000f29818562000eb6565b905062000f3a604083018462000b9d565b949350505050565b600081519050919050565b600082825260208201905092915050565b6000819050602082019050919050565b600082825260208201905092915050565b600062000f8c8262000e64565b62000f98818562000f6e565b935062000faa81856020860162000e80565b62000fb58162000736565b840191505092915050565b7f4e487b7100000000000000000000000000000000000000000000000000000000600052602160045260246000fd5b6003811062001003576200100262000fc0565b5b50565b6000819050620010168262000fef565b919050565b6000620010288262001006565b9050919050565b6200103a816200101b565b82525050565b6200104b81620008f4565b82525050565b600060a083016000830151848203600086015262001070828262000f7f565b915050602083015184820360208601526200108c828262000f7f565b9150506040830151620010a360408601826200102f565b506060830151620010b8606086018262001040565b506080830151620010cd608086018262001040565b508091505092915050565b6000620010e6838362001051565b905092915050565b6000602082019050919050565b6000620011088262000f42565b62001114818562000f4d565b935083602082028501620011288562000f5e565b8060005b858110156200116a5784840389528151620011488582620010d8565b94506200115583620010ee565b925060208a019950506001810190506200112c565b50829750879550505050505092915050565b60006040820190508181036000830152620011988185620010fb565b9050620011a9602083018462000b9d565b9392505050565b600081519050919050565b600082825260208201905092915050565b6000819050602082019050919050565b620011e78162000b89565b82525050565b600060a08301600083015184820360008601526200120c828262000f7f565b915050602083015162001223602086018262001040565b50604083015184820360408601526200123d828262000f7f565b9150506060830151620012546060860182620011dc565b50608083015162001269608086018262001040565b508091505092915050565b6000620012828383620011ed565b905092915050565b6000602082019050919050565b6000620012a482620011b0565b620012b08185620011bb565b935083602082028501620012c485620011cc565b8060005b85811015620013065784840389528151620012e4858262001274565b9450620012f1836200128a565b925060208a01995050600181019050620012c8565b50829750879550505050505092915050565b6000602082019050818103600083015262001334818462001297565b905092915050565b7f4e487b7100000000000000000000000000000000000000000000000000000000600052601260045260246000fd5b7f4e487b7100000000000000000000000000000000000000000000000000000000600052601160045260246000fd5b6000620013a782620008f4565b9150620013b483620008f4565b925082620013c757620013c66200133c565b5b828204905092915050565b6000620013df82620008f4565b9150620013ec83620008f4565b9250817fffffffffffffffffffffffffffffffffffffffffffffffffffffffffffffffff04831182151516156200142857620014276200136b565b5b828202905092915050565b600081519050620014448162000bcb565b92915050565b60006020828403121562001463576200146262000722565b5b6000620014738482850162001433565b91505092915050565b60006200148982620008f4565b91506200149683620008f4565b925082821015620014ac57620014ab6200136b565b5b828203905092915050565b7f4163636573732072657374726963746564210000000000000000000000000000600082015250565b6000620014ef60128362000e6f565b9150620014fc82620014b7565b602082019050919050565b600060208201905081810360008301526200152281620014e0565b905091905056fe60806040526001600a60146101000a81548160ff0219169083151502179055503480156200002c57600080fd5b50604051620049f4380380620049f48339818101604052810190620000529190620003c5565b828281600090805190602001906200006c92919062000113565b5080600190805190602001906200008592919062000113565b50505033600b60006101000a81548173ffffffffffffffffffffffffffffffffffffffff021916908373ffffffffffffffffffffffffffffffffffffffff16021790555080600a60006101000a81548173ffffffffffffffffffffffffffffffffffffffff021916908373ffffffffffffffffffffffffffffffffffffffff160217905550505050620004c3565b82805462000121906200048e565b90600052602060002090601f01602090048101928262000145576000855562000191565b82601f106200016057805160ff191683800117855562000191565b8280016001018555821562000191579182015b828111156200019057825182559160200191906001019062000173565b5b509050620001a09190620001a4565b5090565b5b80821115620001bf576000816000905550600101620001a5565b5090565b6000604051905090565b600080fd5b600080fd5b600080fd5b600080fd5b6000601f19601f8301169050919050565b7f4e487b7100000000000000000000000000000000000000000000000000000000600052604160045260246000fd5b6200022c82620001e1565b810181811067ffffffffffffffff821117156200024e576200024d620001f2565b5b80604052505050565b600062000263620001c3565b905062000271828262000221565b919050565b600067ffffffffffffffff821115620002945762000293620001f2565b5b6200029f82620001e1565b9050602081019050919050565b60005b83811015620002cc578082015181840152602081019050620002af565b83811115620002dc576000848401525b50505050565b6000620002f9620002f38462000276565b62000257565b905082815260208101848484011115620003185762000317620001dc565b5b62000325848285620002ac565b509392505050565b600082601f830112620003455762000344620001d7565b5b815162000357848260208601620002e2565b91505092915050565b600073ffffffffffffffffffffffffffffffffffffffff82169050919050565b60006200038d8262000360565b9050919050565b6200039f8162000380565b8114620003ab57600080fd5b50565b600081519050620003bf8162000394565b92915050565b600080600060608486031215620003e157620003e0620001cd565b5b600084015167ffffffffffffffff811115620004025762000401620001d2565b5b62000410868287016200032d565b935050602084015167ffffffffffffffff811115620004345762000433620001d2565b5b62000442868287016200032d565b92505060406200045586828701620003ae565b9150509250925092565b7f4e487b7100000000000000000000000000000000000000000000000000000000600052602260045260246000fd5b60006002820490506001821680620004a757607f821691505b602082108103620004bd57620004bc6200045f565b5b50919050565b61452180620004d36000396000f3fe6080604052600436106101355760003560e01c80638aaf2686116100ab578063c5cc6b6a1161006f578063c5cc6b6a14610424578063c63197ce1461044f578063c87b56dd1461046b578063e985e9c5146104a8578063eb8d2444146104e5578063ee55efee1461051057610135565b80638aaf26861461033f57806395d89b411461037c578063a22cb465146103a7578063b2bdfa7b146103d0578063b88d4fde146103fb57610135565b806323b872dd116100fd57806323b872dd1461021f5780632c4dd21e146102485780633d181c7e1461027357806342842e0e1461029c5780636352211e146102c557806370a082311461030257610135565b806301ffc9a71461013a57806306fdde0314610177578063081812fc146101a2578063095ea7b3146101df578063167ff46f14610208575b600080fd5b34801561014657600080fd5b50610161600480360381019061015c91906127ac565b610527565b60405161016e91906127f4565b60405180910390f35b34801561018357600080fd5b5061018c610609565b60405161019991906128a8565b60405180910390f35b3480156101ae57600080fd5b506101c960048036038101906101c49190612900565b61069b565b6040516101d6919061296e565b60405180910390f35b3480156101eb57600080fd5b50610206600480360381019061020191906129b5565b610720565b005b34801561021457600080fd5b5061021d610837565b005b34801561022b57600080fd5b50610246600480360381019061024191906129f5565b6108e6565b005b34801561025457600080fd5b5061025d610946565b60405161026a9190612c57565b60405180910390f35b34801561027f57600080fd5b5061029a60048036038101906102959190612f87565b610b91565b005b3480156102a857600080fd5b506102c360048036038101906102be91906129f5565b610d23565b005b3480156102d157600080fd5b506102ec60048036038101906102e79190612900565b610d43565b6040516102f9919061296e565b60405180910390f35b34801561030e57600080fd5b5061032960048036038101906103249190612fe3565b610df4565b604051610336919061301f565b60405180910390f35b34801561034b57600080fd5b5061036660048036038101906103619190612fe3565b610eab565b6040516103739190613181565b60405180910390f35b34801561038857600080fd5b5061039161108e565b60405161039e91906128a8565b60405180910390f35b3480156103b357600080fd5b506103ce60048036038101906103c991906131cf565b611120565b005b3480156103dc57600080fd5b506103e5611136565b6040516103f2919061296e565b60405180910390f35b34801561040757600080fd5b50610422600480360381019061041d91906132b0565b61115c565b005b34801561043057600080fd5b506104396111be565b604051610446919061296e565b60405180910390f35b610469600480360381019061046491906134d8565b6111e4565b005b34801561047757600080fd5b50610492600480360381019061048d9190612900565b61145f565b60405161049f91906128a8565b60405180910390f35b3480156104b457600080fd5b506104cf60048036038101906104ca9190613521565b6115b0565b6040516104dc91906127f4565b60405180910390f35b3480156104f157600080fd5b506104fa611644565b60405161050791906127f4565b60405180910390f35b34801561051c57600080fd5b50610525611657565b005b60007f80ac58cd000000000000000000000000000000000000000000000000000000007bffffffffffffffffffffffffffffffffffffffffffffffffffffffff1916827bffffffffffffffffffffffffffffffffffffffffffffffffffffffff191614806105f257507f5b5e139f000000000000000000000000000000000000000000000000000000007bffffffffffffffffffffffffffffffffffffffffffffffffffffffff1916827bffffffffffffffffffffffffffffffffffffffffffffffffffffffff1916145b80610602575061060182611706565b5b9050919050565b60606000805461061890613590565b80601f016020809104026020016040519081016040528092919081815260200182805461064490613590565b80156106915780601f1061066657610100808354040283529160200191610691565b820191906000526020600020905b81548152906001019060200180831161067457829003601f168201915b5050505050905090565b60006106a682611770565b6106e5576040517f08c379a00000000000000000000000000000000000000000000000000000000081526004016106dc90613633565b60405180910390fd5b6004600083815260200190815260200160002060009054906101000a900473ffffffffffffffffffffffffffffffffffffffff169050919050565b600061072b82610d43565b90508073ffffffffffffffffffffffffffffffffffffffff168373ffffffffffffffffffffffffffffffffffffffff160361079b576040517f08c379a0000000000000000000000000000000000000000000000000000000008152600401610792906136c5565b60405180910390fd5b8073ffffffffffffffffffffffffffffffffffffffff166107ba6117dc565b73ffffffffffffffffffffffffffffffffffffffff1614806107e957506107e8816107e36117dc565b6115b0565b5b610828576040517f08c379a000000000000000000000000000000000000000000000000000000000815260040161081f90613757565b60405180910390fd5b61083283836117e4565b505050565b33600a60009054906101000a900473ffffffffffffffffffffffffffffffffffffffff1673ffffffffffffffffffffffffffffffffffffffff168173ffffffffffffffffffffffffffffffffffffffff16146108c8576040517f08c379a00000000000000000000000000000000000000000000000000000000081526004016108bf906137c3565b60405180910390fd5b6001600a60146101000a81548160ff02191690831515021790555050565b6108f76108f16117dc565b8261189d565b610936576040517f08c379a000000000000000000000000000000000000000000000000000000000815260040161092d90613855565b60405180910390fd5b61094183838361197b565b505050565b6060600873__TicketManager_________________________63583ede5290916040518263ffffffff1660e01b8152600401610982919061387c565b602060405180830381865af415801561099f573d6000803e3d6000fd5b505050506040513d601f19601f820116820180604052508101906109c391906138cd565b805480602002602001604051908101604052809291908181526020016000905b82821015610b8857838290600052602060002090600502016040518060a0016040529081600082018054610a1690613590565b80601f0160208091040260200160405190810160405280929190818152602001828054610a4290613590565b8015610a8f5780601f10610a6457610100808354040283529160200191610a8f565b820191906000526020600020905b815481529060010190602001808311610a7257829003601f168201915b50505050508152602001600182018054610aa890613590565b80601f0160208091040260200160405190810160405280929190818152602001828054610ad490613590565b8015610b215780601f10610af657610100808354040283529160200191610b21565b820191906000526020600020905b815481529060010190602001808311610b0457829003601f168201915b505050505081526020016002820160009054906101000a900460ff166002811115610b4f57610b4e612abe565b5b6002811115610b6157610b60612abe565b5b815260200160038201548152602001600482015481525050815260200190600101906109e3565b50505050905090565b600b60009054906101000a900473ffffffffffffffffffffffffffffffffffffffff1673ffffffffffffffffffffffffffffffffffffffff163373ffffffffffffffffffffffffffffffffffffffff1614610c21576040517f08c379a0000000000000000000000000000000000000000000000000000000008152600401610c1890613946565b60405180910390fd5b80600a60009054906101000a900473ffffffffffffffffffffffffffffffffffffffff1673ffffffffffffffffffffffffffffffffffffffff168173ffffffffffffffffffffffffffffffffffffffff1614610cb2576040517f08c379a0000000000000000000000000000000000000000000000000000000008152600401610ca9906137c3565b60405180910390fd5b600873__TicketManager_________________________63a2a93cbf9091856040518363ffffffff1660e01b8152600401610cee929190613ae5565b60006040518083038186803b158015610d0657600080fd5b505af4158015610d1a573d6000803e3d6000fd5b50505050505050565b610d3e8383836040518060200160405280600081525061115c565b505050565b6000806002600084815260200190815260200160002060009054906101000a900473ffffffffffffffffffffffffffffffffffffffff169050600073ffffffffffffffffffffffffffffffffffffffff168173ffffffffffffffffffffffffffffffffffffffff1603610deb576040517f08c379a0000000000000000000000000000000000000000000000000000000008152600401610de290613b87565b60405180910390fd5b80915050919050565b60008073ffffffffffffffffffffffffffffffffffffffff168273ffffffffffffffffffffffffffffffffffffffff1603610e64576040517f08c379a0000000000000000000000000000000000000000000000000000000008152600401610e5b90613c19565b60405180910390fd5b600360008373ffffffffffffffffffffffffffffffffffffffff1673ffffffffffffffffffffffffffffffffffffffff168152602001908152602001600020549050919050565b6060600080610eb984610df4565b03610ec45750611089565b60005b610ed16007611be1565b811161108657600060086001018281548110610ef057610eef613c39565b5b90600052602060002090600502016040518060a0016040529081600082018054610f1990613590565b80601f0160208091040260200160405190810160405280929190818152602001828054610f4590613590565b8015610f925780601f10610f6757610100808354040283529160200191610f92565b820191906000526020600020905b815481529060010190602001808311610f7557829003601f168201915b505050505081526020016001820160009054906101000a900473ffffffffffffffffffffffffffffffffffffffff1673ffffffffffffffffffffffffffffffffffffffff1673ffffffffffffffffffffffffffffffffffffffff168152602001600282015481526020016003820154815260200160048201548152505090508473ffffffffffffffffffffffffffffffffffffffff166110358260400151610d43565b73ffffffffffffffffffffffffffffffffffffffff1603611078578084848151811061106457611063613c39565b5b602002602001018190525082806001019350505b818060010192505050610ec7565b50505b919050565b60606001805461109d90613590565b80601f01602080910402602001604051908101604052809291908181526020018280546110c990613590565b80156111165780601f106110eb57610100808354040283529160200191611116565b820191906000526020600020905b8154815290600101906020018083116110f957829003601f168201915b5050505050905090565b61113261112b6117dc565b8383611bef565b5050565b600a60009054906101000a900473ffffffffffffffffffffffffffffffffffffffff1681565b61116d6111676117dc565b8361189d565b6111ac576040517f08c379a00000000000000000000000000000000000000000000000000000000081526004016111a390613855565b60405180910390fd5b6111b884848484611d5b565b50505050565b600b60009054906101000a900473ffffffffffffffffffffffffffffffffffffffff1681565b600b60009054906101000a900473ffffffffffffffffffffffffffffffffffffffff1673ffffffffffffffffffffffffffffffffffffffff163373ffffffffffffffffffffffffffffffffffffffff1614611274576040517f08c379a000000000000000000000000000000000000000000000000000000000815260040161126b90613946565b60405180910390fd5b600a60149054906101000a900460ff1661128d57600080fd5b6112a1816008611db790919063ffffffff16565b3410156112e3576040517f08c379a00000000000000000000000000000000000000000000000000000000081526004016112da90613cb4565b60405180910390fd5b60005b815181101561145b57600082828151811061130457611303613c39565b5b60200260200101519050600061131a6007611be1565b90506113263082611fef565b611330600761200d565b61133e818360400151612023565b61134d30836060015183610d23565b60086001016040518060a0016040528084600001518152602001846060015173ffffffffffffffffffffffffffffffffffffffff168152602001838152602001846020015181526020018460800151815250908060018154018082558091505060019003906000526020600020906005020160009091909190915060008201518160000190805190602001906113e492919061269d565b5060208201518160010160006101000a81548173ffffffffffffffffffffffffffffffffffffffff021916908373ffffffffffffffffffffffffffffffffffffffff1602179055506040820151816002015560608201518160030155608082015181600401555050828060010193505050506112e6565b5050565b606061146a82611770565b6114a9576040517f08c379a00000000000000000000000000000000000000000000000000000000081526004016114a090613d46565b60405180910390fd5b60006006600084815260200190815260200160002080546114c990613590565b80601f01602080910402602001604051908101604052809291908181526020018280546114f590613590565b80156115425780601f1061151757610100808354040283529160200191611542565b820191906000526020600020905b81548152906001019060200180831161152557829003601f168201915b505050505090506000611553612097565b905060008151036115685781925050506115ab565b60008251111561159d578082604051602001611585929190613da2565b604051602081830303815290604052925050506115ab565b6115a6846120ae565b925050505b919050565b6000600560008473ffffffffffffffffffffffffffffffffffffffff1673ffffffffffffffffffffffffffffffffffffffff16815260200190815260200160002060008373ffffffffffffffffffffffffffffffffffffffff1673ffffffffffffffffffffffffffffffffffffffff16815260200190815260200160002060009054906101000a900460ff16905092915050565b600a60149054906101000a900460ff1681565b33600a60009054906101000a900473ffffffffffffffffffffffffffffffffffffffff1673ffffffffffffffffffffffffffffffffffffffff168173ffffffffffffffffffffffffffffffffffffffff16146116e8576040517f08c379a00000000000000000000000000000000000000000000000000000000081526004016116df906137c3565b60405180910390fd5b6000600a60146101000a81548160ff02191690831515021790555050565b60007f01ffc9a7000000000000000000000000000000000000000000000000000000007bffffffffffffffffffffffffffffffffffffffffffffffffffffffff1916827bffffffffffffffffffffffffffffffffffffffffffffffffffffffff1916149050919050565b60008073ffffffffffffffffffffffffffffffffffffffff166002600084815260200190815260200160002060009054906101000a900473ffffffffffffffffffffffffffffffffffffffff1673ffffffffffffffffffffffffffffffffffffffff1614159050919050565b600033905090565b816004600083815260200190815260200160002060006101000a81548173ffffffffffffffffffffffffffffffffffffffff021916908373ffffffffffffffffffffffffffffffffffffffff160217905550808273ffffffffffffffffffffffffffffffffffffffff1661185783610d43565b73ffffffffffffffffffffffffffffffffffffffff167f8c5be1e5ebec7d5bd14f71427d1e84f3dd0314c0f7b2291e5b200ac8c7c3b92560405160405180910390a45050565b60006118a882611770565b6118e7576040517f08c379a00000000000000000000000000000000000000000000000000000000081526004016118de90613e38565b60405180910390fd5b60006118f283610d43565b90508073ffffffffffffffffffffffffffffffffffffffff168473ffffffffffffffffffffffffffffffffffffffff16148061196157508373ffffffffffffffffffffffffffffffffffffffff166119498461069b565b73ffffffffffffffffffffffffffffffffffffffff16145b80611972575061197181856115b0565b5b91505092915050565b8273ffffffffffffffffffffffffffffffffffffffff1661199b82610d43565b73ffffffffffffffffffffffffffffffffffffffff16146119f1576040517f08c379a00000000000000000000000000000000000000000000000000000000081526004016119e890613eca565b60405180910390fd5b600073ffffffffffffffffffffffffffffffffffffffff168273ffffffffffffffffffffffffffffffffffffffff1603611a60576040517f08c379a0000000000000000000000000000000000000000000000000000000008152600401611a5790613f5c565b60405180910390fd5b611a6b838383612155565b611a766000826117e4565b6001600360008573ffffffffffffffffffffffffffffffffffffffff1673ffffffffffffffffffffffffffffffffffffffff1681526020019081526020016000206000828254611ac69190613fab565b925050819055506001600360008473ffffffffffffffffffffffffffffffffffffffff1673ffffffffffffffffffffffffffffffffffffffff1681526020019081526020016000206000828254611b1d9190613fdf565b92505081905550816002600083815260200190815260200160002060006101000a81548173ffffffffffffffffffffffffffffffffffffffff021916908373ffffffffffffffffffffffffffffffffffffffff160217905550808273ffffffffffffffffffffffffffffffffffffffff168473ffffffffffffffffffffffffffffffffffffffff167fddf252ad1be2c89b69c2b068fc378daa952ba7f163c4a11628f55a4df523b3ef60405160405180910390a4611bdc83838361215a565b505050565b600081600001549050919050565b8173ffffffffffffffffffffffffffffffffffffffff168373ffffffffffffffffffffffffffffffffffffffff1603611c5d576040517f08c379a0000000000000000000000000000000000000000000000000000000008152600401611c5490614081565b60405180910390fd5b80600560008573ffffffffffffffffffffffffffffffffffffffff1673ffffffffffffffffffffffffffffffffffffffff16815260200190815260200160002060008473ffffffffffffffffffffffffffffffffffffffff1673ffffffffffffffffffffffffffffffffffffffff16815260200190815260200160002060006101000a81548160ff0219169083151502179055508173ffffffffffffffffffffffffffffffffffffffff168373ffffffffffffffffffffffffffffffffffffffff167f17307eab39ab6107e8899845ad3d59bd9653f200f220920489ca2b5937696c3183604051611d4e91906127f4565b60405180910390a3505050565b611d6684848461197b565b611d728484848461215f565b611db1576040517f08c379a0000000000000000000000000000000000000000000000000000000008152600401611da890614113565b60405180910390fd5b50505050565b600080600090505b82518160ff161015611fe857600084600001848360ff1681518110611de757611de6613c39565b5b60200260200101516020015181548110611e0457611e03613c39565b5b90600052602060002090600502016040518060a0016040529081600082018054611e2d90613590565b80601f0160208091040260200160405190810160405280929190818152602001828054611e5990613590565b8015611ea65780601f10611e7b57610100808354040283529160200191611ea6565b820191906000526020600020905b815481529060010190602001808311611e8957829003601f168201915b50505050508152602001600182018054611ebf90613590565b80601f0160208091040260200160405190810160405280929190818152602001828054611eeb90613590565b8015611f385780601f10611f0d57610100808354040283529160200191611f38565b820191906000526020600020905b815481529060010190602001808311611f1b57829003601f168201915b505050505081526020016002820160009054906101000a900460ff166002811115611f6657611f65612abe565b5b6002811115611f7857611f77612abe565b5b8152602001600382015481526020016004820154815250509050600280811115611fa557611fa4612abe565b5b81604001516002811115611fbc57611fbb612abe565b5b03611fc75750611fe3565b806080015183611fd79190613fdf565b92508180600101925050505b611dbf565b5092915050565b6120098282604051806020016040528060008152506122e6565b5050565b6001816000016000828254019250508190555050565b61202c82611770565b61206b576040517f08c379a0000000000000000000000000000000000000000000000000000000008152600401612062906141a5565b60405180910390fd5b8060066000848152602001908152602001600020908051906020019061209292919061269d565b505050565b606060405180602001604052806000815250905090565b60606120b982611770565b6120f8576040517f08c379a00000000000000000000000000000000000000000000000000000000081526004016120ef90614237565b60405180910390fd5b6000612102612097565b90506000815111612122576040518060200160405280600081525061214d565b8061212c84612341565b60405160200161213d929190613da2565b6040516020818303038152906040525b915050919050565b505050565b505050565b60006121808473ffffffffffffffffffffffffffffffffffffffff166124a1565b156122d9578373ffffffffffffffffffffffffffffffffffffffff1663150b7a026121a96117dc565b8786866040518563ffffffff1660e01b81526004016121cb94939291906142ac565b6020604051808303816000875af192505050801561220757506040513d601f19601f82011682018060405250810190612204919061430d565b60015b612289573d8060008114612237576040519150601f19603f3d011682016040523d82523d6000602084013e61223c565b606091505b506000815103612281576040517f08c379a000000000000000000000000000000000000000000000000000000000815260040161227890614113565b60405180910390fd5b805181602001fd5b63150b7a0260e01b7bffffffffffffffffffffffffffffffffffffffffffffffffffffffff1916817bffffffffffffffffffffffffffffffffffffffffffffffffffffffff1916149150506122de565b600190505b949350505050565b6122f083836124c4565b6122fd600084848461215f565b61233c576040517f08c379a000000000000000000000000000000000000000000000000000000000815260040161233390614113565b60405180910390fd5b505050565b606060008203612388576040518060400160405280600181526020017f3000000000000000000000000000000000000000000000000000000000000000815250905061249c565b600082905060005b600082146123ba5780806123a39061433a565b915050600a826123b391906143b1565b9150612390565b60008167ffffffffffffffff8111156123d6576123d5612c7e565b5b6040519080825280601f01601f1916602001820160405280156124085781602001600182028036833780820191505090505b5090505b60008514612495576001826124219190613fab565b9150600a8561243091906143e2565b603061243c9190613fdf565b60f81b81838151811061245257612451613c39565b5b60200101907effffffffffffffffffffffffffffffffffffffffffffffffffffffffffffff1916908160001a905350600a8561248e91906143b1565b945061240c565b8093505050505b919050565b6000808273ffffffffffffffffffffffffffffffffffffffff163b119050919050565b600073ffffffffffffffffffffffffffffffffffffffff168273ffffffffffffffffffffffffffffffffffffffff1603612533576040517f08c379a000000000000000000000000000000000000000000000000000000000815260040161252a9061445f565b60405180910390fd5b61253c81611770565b1561257c576040517f08c379a0000000000000000000000000000000000000000000000000000000008152600401612573906144cb565b60405180910390fd5b61258860008383612155565b6001600360008473ffffffffffffffffffffffffffffffffffffffff1673ffffffffffffffffffffffffffffffffffffffff16815260200190815260200160002060008282546125d89190613fdf565b92505081905550816002600083815260200190815260200160002060006101000a81548173ffffffffffffffffffffffffffffffffffffffff021916908373ffffffffffffffffffffffffffffffffffffffff160217905550808273ffffffffffffffffffffffffffffffffffffffff16600073ffffffffffffffffffffffffffffffffffffffff167fddf252ad1be2c89b69c2b068fc378daa952ba7f163c4a11628f55a4df523b3ef60405160405180910390a46126996000838361215a565b5050565b8280546126a990613590565b90600052602060002090601f0160209004810192826126cb5760008555612712565b82601f106126e457805160ff1916838001178555612712565b82800160010185558215612712579182015b828111156127115782518255916020019190600101906126f6565b5b50905061271f9190612723565b5090565b5b8082111561273c576000816000905550600101612724565b5090565b6000604051905090565b600080fd5b600080fd5b60007fffffffff0000000000000000000000000000000000000000000000000000000082169050919050565b61278981612754565b811461279457600080fd5b50565b6000813590506127a681612780565b92915050565b6000602082840312156127c2576127c161274a565b5b60006127d084828501612797565b91505092915050565b60008115159050919050565b6127ee816127d9565b82525050565b600060208201905061280960008301846127e5565b92915050565b600081519050919050565b600082825260208201905092915050565b60005b8381101561284957808201518184015260208101905061282e565b83811115612858576000848401525b50505050565b6000601f19601f8301169050919050565b600061287a8261280f565b612884818561281a565b935061289481856020860161282b565b61289d8161285e565b840191505092915050565b600060208201905081810360008301526128c2818461286f565b905092915050565b6000819050919050565b6128dd816128ca565b81146128e857600080fd5b50565b6000813590506128fa816128d4565b92915050565b6000602082840312156129165761291561274a565b5b6000612924848285016128eb565b91505092915050565b600073ffffffffffffffffffffffffffffffffffffffff82169050919050565b60006129588261292d565b9050919050565b6129688161294d565b82525050565b6000602082019050612983600083018461295f565b92915050565b6129928161294d565b811461299d57600080fd5b50565b6000813590506129af81612989565b92915050565b600080604083850312156129cc576129cb61274a565b5b60006129da858286016129a0565b92505060206129eb858286016128eb565b9150509250929050565b600080600060608486031215612a0e57612a0d61274a565b5b6000612a1c868287016129a0565b9350506020612a2d868287016129a0565b9250506040612a3e868287016128eb565b9150509250925092565b600081519050919050565b600082825260208201905092915050565b6000819050602082019050919050565b600082825260208201905092915050565b6000612a908261280f565b612a9a8185612a74565b9350612aaa81856020860161282b565b612ab38161285e565b840191505092915050565b7f4e487b7100000000000000000000000000000000000000000000000000000000600052602160045260246000fd5b60038110612afe57612afd612abe565b5b50565b6000819050612b0f82612aed565b919050565b6000612b1f82612b01565b9050919050565b612b2f81612b14565b82525050565b612b3e816128ca565b82525050565b600060a0830160008301518482036000860152612b618282612a85565b91505060208301518482036020860152612b7b8282612a85565b9150506040830151612b906040860182612b26565b506060830151612ba36060860182612b35565b506080830151612bb66080860182612b35565b508091505092915050565b6000612bcd8383612b44565b905092915050565b6000602082019050919050565b6000612bed82612a48565b612bf78185612a53565b935083602082028501612c0985612a64565b8060005b85811015612c455784840389528151612c268582612bc1565b9450612c3183612bd5565b925060208a01995050600181019050612c0d565b50829750879550505050505092915050565b60006020820190508181036000830152612c718184612be2565b905092915050565b600080fd5b7f4e487b7100000000000000000000000000000000000000000000000000000000600052604160045260246000fd5b612cb68261285e565b810181811067ffffffffffffffff82111715612cd557612cd4612c7e565b5b80604052505050565b6000612ce8612740565b9050612cf48282612cad565b919050565b600067ffffffffffffffff821115612d1457612d13612c7e565b5b602082029050602081019050919050565b600080fd5b600080fd5b600080fd5b600080fd5b600067ffffffffffffffff821115612d5457612d53612c7e565b5b612d5d8261285e565b9050602081019050919050565b82818337600083830152505050565b6000612d8c612d8784612d39565b612cde565b905082815260208101848484011115612da857612da7612d34565b5b612db3848285612d6a565b509392505050565b600082601f830112612dd057612dcf612c79565b5b8135612de0848260208601612d79565b91505092915050565b60038110612df657600080fd5b50565b600081359050612e0881612de9565b92915050565b600060a08284031215612e2457612e23612d2a565b5b612e2e60a0612cde565b9050600082013567ffffffffffffffff811115612e4e57612e4d612d2f565b5b612e5a84828501612dbb565b600083015250602082013567ffffffffffffffff811115612e7e57612e7d612d2f565b5b612e8a84828501612dbb565b6020830152506040612e9e84828501612df9565b6040830152506060612eb2848285016128eb565b6060830152506080612ec6848285016128eb565b60808301525092915050565b6000612ee5612ee084612cf9565b612cde565b90508083825260208201905060208402830185811115612f0857612f07612d25565b5b835b81811015612f4f57803567ffffffffffffffff811115612f2d57612f2c612c79565b5b808601612f3a8982612e0e565b85526020850194505050602081019050612f0a565b5050509392505050565b600082601f830112612f6e57612f6d612c79565b5b8135612f7e848260208601612ed2565b91505092915050565b60008060408385031215612f9e57612f9d61274a565b5b600083013567ffffffffffffffff811115612fbc57612fbb61274f565b5b612fc885828601612f59565b9250506020612fd9858286016129a0565b9150509250929050565b600060208284031215612ff957612ff861274a565b5b6000613007848285016129a0565b91505092915050565b613019816128ca565b82525050565b60006020820190506130346000830184613010565b92915050565b600081519050919050565b600082825260208201905092915050565b6000819050602082019050919050565b61306f8161294d565b82525050565b600060a08301600083015184820360008601526130928282612a85565b91505060208301516130a76020860182613066565b5060408301516130ba6040860182612b35565b5060608301516130cd6060860182612b35565b5060808301516130e06080860182612b35565b508091505092915050565b60006130f78383613075565b905092915050565b6000602082019050919050565b60006131178261303a565b6131218185613045565b93508360208202850161313385613056565b8060005b8581101561316f578484038952815161315085826130eb565b945061315b836130ff565b925060208a01995050600181019050613137565b50829750879550505050505092915050565b6000602082019050818103600083015261319b818461310c565b905092915050565b6131ac816127d9565b81146131b757600080fd5b50565b6000813590506131c9816131a3565b92915050565b600080604083850312156131e6576131e561274a565b5b60006131f4858286016129a0565b9250506020613205858286016131ba565b9150509250929050565b600067ffffffffffffffff82111561322a57613229612c7e565b5b6132338261285e565b9050602081019050919050565b600061325361324e8461320f565b612cde565b90508281526020810184848401111561326f5761326e612d34565b5b61327a848285612d6a565b509392505050565b600082601f83011261329757613296612c79565b5b81356132a7848260208601613240565b91505092915050565b600080600080608085870312156132ca576132c961274a565b5b60006132d8878288016129a0565b94505060206132e9878288016129a0565b93505060406132fa878288016128eb565b925050606085013567ffffffffffffffff81111561331b5761331a61274f565b5b61332787828801613282565b91505092959194509250565b600067ffffffffffffffff82111561334e5761334d612c7e565b5b602082029050602081019050919050565b600060a0828403121561337557613374612d2a565b5b61337f60a0612cde565b9050600082013567ffffffffffffffff81111561339f5761339e612d2f565b5b6133ab84828501612dbb565b60008301525060206133bf848285016128eb565b602083015250604082013567ffffffffffffffff8111156133e3576133e2612d2f565b5b6133ef84828501612dbb565b6040830152506060613403848285016129a0565b6060830152506080613417848285016128eb565b60808301525092915050565b600061343661343184613333565b612cde565b9050808382526020820190506020840283018581111561345957613458612d25565b5b835b818110156134a057803567ffffffffffffffff81111561347e5761347d612c79565b5b80860161348b898261335f565b8552602085019450505060208101905061345b565b5050509392505050565b600082601f8301126134bf576134be612c79565b5b81356134cf848260208601613423565b91505092915050565b6000602082840312156134ee576134ed61274a565b5b600082013567ffffffffffffffff81111561350c5761350b61274f565b5b613518848285016134aa565b91505092915050565b600080604083850312156135385761353761274a565b5b6000613546858286016129a0565b9250506020613557858286016129a0565b9150509250929050565b7f4e487b7100000000000000000000000000000000000000000000000000000000600052602260045260246000fd5b600060028204905060018216806135a857607f821691505b6020821081036135bb576135ba613561565b5b50919050565b7f4552433732313a20617070726f76656420717565727920666f72206e6f6e657860008201527f697374656e7420746f6b656e0000000000000000000000000000000000000000602082015250565b600061361d602c8361281a565b9150613628826135c1565b604082019050919050565b6000602082019050818103600083015261364c81613610565b9050919050565b7f4552433732313a20617070726f76616c20746f2063757272656e74206f776e6560008201527f7200000000000000000000000000000000000000000000000000000000000000602082015250565b60006136af60218361281a565b91506136ba82613653565b604082019050919050565b600060208201905081810360008301526136de816136a2565b9050919050565b7f4552433732313a20617070726f76652063616c6c6572206973206e6f74206f7760008201527f6e6572206e6f7220617070726f76656420666f7220616c6c0000000000000000602082015250565b600061374160388361281a565b915061374c826136e5565b604082019050919050565b6000602082019050818103600083015261377081613734565b9050919050565b7f4163636573732072657374726963746564210000000000000000000000000000600082015250565b60006137ad60128361281a565b91506137b882613777565b602082019050919050565b600060208201905081810360008301526137dc816137a0565b9050919050565b7f4552433732313a207472616e736665722063616c6c6572206973206e6f74206f60008201527f776e6572206e6f7220617070726f766564000000000000000000000000000000602082015250565b600061383f60318361281a565b915061384a826137e3565b604082019050919050565b6000602082019050818103600083015261386e81613832565b9050919050565b8082525050565b60006020820190506138916000830184613875565b92915050565b6000819050919050565b6138aa81613897565b81146138b557600080fd5b50565b6000815190506138c7816138a1565b92915050565b6000602082840312156138e3576138e261274a565b5b60006138f1848285016138b8565b91505092915050565b7f596f75206e65656420746f207573652074686520666163746f72790000000000600082015250565b6000613930601b8361281a565b915061393b826138fa565b602082019050919050565b6000602082019050818103600083015261395f81613923565b9050919050565b600082825260208201905092915050565b600082825260208201905092915050565b60006139938261280f565b61399d8185613977565b93506139ad81856020860161282b565b6139b68161285e565b840191505092915050565b6139ca81612b14565b82525050565b6139d9816128ca565b82525050565b600060a08301600083015184820360008601526139fc8282613988565b91505060208301518482036020860152613a168282613988565b9150506040830151613a2b60408601826139c1565b506060830151613a3e60608601826139d0565b506080830151613a5160808601826139d0565b508091505092915050565b6000613a6883836139df565b905092915050565b6000613a7b82612a48565b613a858185613966565b935083602082028501613a9785612a64565b8060005b85811015613ad35784840389528151613ab48582613a5c565b9450613abf83612bd5565b925060208a01995050600181019050613a9b565b50829750879550505050505092915050565b6000604082019050613afa6000830185613875565b8181036020830152613b0c8184613a70565b90509392505050565b7f4552433732313a206f776e657220717565727920666f72206e6f6e657869737460008201527f656e7420746f6b656e0000000000000000000000000000000000000000000000602082015250565b6000613b7160298361281a565b9150613b7c82613b15565b604082019050919050565b60006020820190508181036000830152613ba081613b64565b9050919050565b7f4552433732313a2062616c616e636520717565727920666f7220746865207a6560008201527f726f206164647265737300000000000000000000000000000000000000000000602082015250565b6000613c03602a8361281a565b9150613c0e82613ba7565b604082019050919050565b60006020820190508181036000830152613c3281613bf6565b9050919050565b7f4e487b7100000000000000000000000000000000000000000000000000000000600052603260045260246000fd5b7f546865207469636b65747320636f7374206d6f72650000000000000000000000600082015250565b6000613c9e60158361281a565b9150613ca982613c68565b602082019050919050565b60006020820190508181036000830152613ccd81613c91565b9050919050565b7f45524337323155524953746f726167653a2055524920717565727920666f722060008201527f6e6f6e6578697374656e7420746f6b656e000000000000000000000000000000602082015250565b6000613d3060318361281a565b9150613d3b82613cd4565b604082019050919050565b60006020820190508181036000830152613d5f81613d23565b9050919050565b600081905092915050565b6000613d7c8261280f565b613d868185613d66565b9350613d9681856020860161282b565b80840191505092915050565b6000613dae8285613d71565b9150613dba8284613d71565b91508190509392505050565b7f4552433732313a206f70657261746f7220717565727920666f72206e6f6e657860008201527f697374656e7420746f6b656e0000000000000000000000000000000000000000602082015250565b6000613e22602c8361281a565b9150613e2d82613dc6565b604082019050919050565b60006020820190508181036000830152613e5181613e15565b9050919050565b7f4552433732313a207472616e736665722066726f6d20696e636f72726563742060008201527f6f776e6572000000000000000000000000000000000000000000000000000000602082015250565b6000613eb460258361281a565b9150613ebf82613e58565b604082019050919050565b60006020820190508181036000830152613ee381613ea7565b9050919050565b7f4552433732313a207472616e7366657220746f20746865207a65726f2061646460008201527f7265737300000000000000000000000000000000000000000000000000000000602082015250565b6000613f4660248361281a565b9150613f5182613eea565b604082019050919050565b60006020820190508181036000830152613f7581613f39565b9050919050565b7f4e487b7100000000000000000000000000000000000000000000000000000000600052601160045260246000fd5b6000613fb6826128ca565b9150613fc1836128ca565b925082821015613fd457613fd3613f7c565b5b828203905092915050565b6000613fea826128ca565b9150613ff5836128ca565b9250827fffffffffffffffffffffffffffffffffffffffffffffffffffffffffffffffff0382111561402a57614029613f7c565b5b828201905092915050565b7f4552433732313a20617070726f766520746f2063616c6c657200000000000000600082015250565b600061406b60198361281a565b915061407682614035565b602082019050919050565b6000602082019050818103600083015261409a8161405e565b9050919050565b7f4552433732313a207472616e7366657220746f206e6f6e20455243373231526560008201527f63656976657220696d706c656d656e7465720000000000000000000000000000602082015250565b60006140fd60328361281a565b9150614108826140a1565b604082019050919050565b6000602082019050818103600083015261412c816140f0565b9050919050565b7f45524337323155524953746f726167653a2055524920736574206f66206e6f6e60008201527f6578697374656e7420746f6b656e000000000000000000000000000000000000602082015250565b600061418f602e8361281a565b915061419a82614133565b604082019050919050565b600060208201905081810360008301526141be81614182565b9050919050565b7f4552433732314d657461646174613a2055524920717565727920666f72206e6f60008201527f6e6578697374656e7420746f6b656e0000000000000000000000000000000000602082015250565b6000614221602f8361281a565b915061422c826141c5565b604082019050919050565b6000602082019050818103600083015261425081614214565b9050919050565b600081519050919050565b600082825260208201905092915050565b600061427e82614257565b6142888185614262565b935061429881856020860161282b565b6142a18161285e565b840191505092915050565b60006080820190506142c1600083018761295f565b6142ce602083018661295f565b6142db6040830185613010565b81810360608301526142ed8184614273565b905095945050505050565b60008151905061430781612780565b92915050565b6000602082840312156143235761432261274a565b5b6000614331848285016142f8565b91505092915050565b6000614345826128ca565b91507fffffffffffffffffffffffffffffffffffffffffffffffffffffffffffffffff820361437757614376613f7c565b5b600182019050919050565b7f4e487b7100000000000000000000000000000000000000000000000000000000600052601260045260246000fd5b60006143bc826128ca565b91506143c7836128ca565b9250826143d7576143d6614382565b5b828204905092915050565b60006143ed826128ca565b91506143f8836128ca565b92508261440857614407614382565b5b828206905092915050565b7f4552433732313a206d696e7420746f20746865207a65726f2061646472657373600082015250565b600061444960208361281a565b915061445482614413565b602082019050919050565b600060208201905081810360008301526144788161443c565b9050919050565b7f4552433732313a20746f6b656e20616c7265616479206d696e74656400000000600082015250565b60006144b5601c8361281a565b91506144c08261447f565b602082019050919050565b600060208201905081810360008301526144e4816144a8565b905091905056fea2646970667358221220fceecddd9bca08835b485d0a2f09ce887a8c86489ca82ad53cca4fb58b89a0a064736f6c634300080d0033a2646970667358221220a85cd593c18eee037f53d764dbb22170d8f58b6968759ae53c6cda22656eb0b164736f6c634300080d0033",
  "immutableReferences": {},
  "source": "// SPDX-License-Identifier: GPL-3.0\npragma solidity >=0.6.0 <0.9.0;\n\nimport \"./Event.sol\";\nimport \"./Administrator.sol\";\n\ncontract EventFactory is Administrator {\n    Event[] _events;\n    uint256 platform_percent = 10;\n    event NewEvent(address contractAddress);\n\n    function allEvents() external view returns (Event[] memory) {\n        return _events;\n    }\n\n    function addEvent(\n        string memory name,\n        string memory symbol,\n        BlocTick.Ticket[] memory tickets\n    ) external {\n        Event e = new Event(name, symbol, msg.sender);\n        e.storeTickets(tickets, msg.sender);\n        _events.push(e);\n        emit NewEvent(address(e));\n    }\n\n    function setPlatformPercent(uint256 fee) external onlyAdministrator {\n        platform_percent = fee;\n    }\n\n    function mintTickets(\n        address eventContract,\n        BlocTick.TicketPurchase[] memory purchases\n    ) external payable {\n        Event e = Event(eventContract);\n        e.purchaseTickets(purchases);\n        uint256 platform_fee = (platform_percent / 100) * msg.value;\n        payable(e._owner()).transfer(msg.value - platform_fee);\n        payable(_owner).transfer(platform_fee);\n    }\n}\n",
  "sourcePath": "/workspace/nft-ticketting-contracts/backend/contracts/EventFactory.sol",
  "compiler": {
    "name": "solc",
    "version": "0.8.13+commit.abaa5c0e.Emscripten.clang"
  },
  "schemaVersion": "3.4.7",
  "updatedAt": "2022-04-24T00:42:21.591Z",
  "devdoc": {
    "kind": "dev",
    "methods": {},
    "version": 1
  },
  "userdoc": {
    "kind": "user",
    "methods": {},
    "version": 1
  }
}