{
  "contractName": "EventFactory",
  "abi": [
    {
      "inputs": [
        {
          "internalType": "uint256",
          "name": "",
          "type": "uint256"
        }
      ],
      "name": "_events",
      "outputs": [
        {
          "internalType": "contract Event",
          "name": "",
          "type": "address"
        }
      ],
      "stateMutability": "view",
      "type": "function",
      "constant": true
    },
    {
      "inputs": [],
      "name": "_owner",
      "outputs": [
        {
          "internalType": "address",
          "name": "",
          "type": "address"
        }
      ],
      "stateMutability": "view",
      "type": "function",
      "constant": true
    },
    {
      "inputs": [],
      "name": "allEvents",
      "outputs": [
        {
          "internalType": "contract Event[]",
          "name": "",
          "type": "address[]"
        }
      ],
      "stateMutability": "view",
      "type": "function",
      "constant": true
    },
    {
      "inputs": [
        {
          "components": [
            {
              "internalType": "string",
              "name": "name",
              "type": "string"
            },
            {
              "internalType": "string",
              "name": "ticker",
              "type": "string"
            },
            {
              "internalType": "string",
              "name": "host_name",
              "type": "string"
            },
            {
              "internalType": "uint256",
              "name": "networkId",
              "type": "uint256"
            },
            {
              "internalType": "uint256",
              "name": "event_time",
              "type": "uint256"
            },
            {
              "internalType": "string",
              "name": "category",
              "type": "string"
            },
            {
              "internalType": "string",
              "name": "description",
              "type": "string"
            },
            {
              "internalType": "uint256",
              "name": "visibility",
              "type": "uint256"
            },
            {
              "internalType": "string",
              "name": "cover_image_url",
              "type": "string"
            }
          ],
          "internalType": "struct BlocTick.EventData",
          "name": "eventData",
          "type": "tuple"
        },
        {
          "components": [
            {
              "internalType": "string",
              "name": "name",
              "type": "string"
            },
            {
              "internalType": "string",
              "name": "description",
              "type": "string"
            },
            {
              "internalType": "uint256",
              "name": "ticket_type",
              "type": "uint256"
            },
            {
              "internalType": "uint256",
              "name": "quantity_available",
              "type": "uint256"
            },
            {
              "internalType": "uint256",
              "name": "max_per_order",
              "type": "uint256"
            },
            {
              "internalType": "uint256",
              "name": "price",
              "type": "uint256"
            }
          ],
          "internalType": "struct BlocTick.Ticket[]",
          "name": "tickets",
          "type": "tuple[]"
        }
      ],
      "name": "addEvent",
      "outputs": [
        {
          "internalType": "contract Event",
          "name": "",
          "type": "address"
        }
      ],
      "stateMutability": "nonpayable",
      "type": "function"
    }
  ],
  "bytecode": "0x60806040526001600355600060045534801561001a57600080fd5b50615d1f8061002a6000396000f3fe60806040523480156200001157600080fd5b5060043610620000525760003560e01c806314d7c375146200005757806395c30a641462000079578063b2bdfa7b14620000af578063f040d0f214620000d1575b600080fd5b6200006162000107565b60405162000070919062000519565b60405180910390f35b62000097600480360381019062000091919062000a94565b62000197565b604051620000a6919062000b2a565b60405180910390f35b620000b96200035f565b604051620000c8919062000b6c565b60405180910390f35b620000ef6004803603810190620000e9919062000b89565b62000383565b604051620000fe919062000b2a565b60405180910390f35b606060018054806020026020016040519081016040528092919081815260200182805480156200018d57602002820191906000526020600020905b8160009054906101000a900473ffffffffffffffffffffffffffffffffffffffff1673ffffffffffffffffffffffffffffffffffffffff168152602001906001019080831162000142575b5050505050905090565b60006004548360e0015114158015620001b657506003548360e0015114155b15620001c9576003548360e00181815250505b60008360000151846020015133604051620001e490620003c3565b620001f29392919062000c4e565b604051809103906000f0801580156200020f573d6000803e3d6000fd5b5090508073ffffffffffffffffffffffffffffffffffffffff1663a266894584336040518363ffffffff1660e01b81526004016200024f92919062000e68565b600060405180830381600087803b1580156200026a57600080fd5b505af11580156200027f573d6000803e3d6000fd5b505050508073ffffffffffffffffffffffffffffffffffffffff1663545f68a3856040518263ffffffff1660e01b8152600401620002be919062000f96565b600060405180830381600087803b158015620002d957600080fd5b505af1158015620002ee573d6000803e3d6000fd5b505050506001819080600181540180825580915050600190039060005260206000200160009091909190916101000a81548173ffffffffffffffffffffffffffffffffffffffff021916908373ffffffffffffffffffffffffffffffffffffffff1602179055508091505092915050565b60008054906101000a900473ffffffffffffffffffffffffffffffffffffffff1681565b600181815481106200039457600080fd5b906000526020600020016000915054906101000a900473ffffffffffffffffffffffffffffffffffffffff1681565b614d2f8062000fbb83390190565b600081519050919050565b600082825260208201905092915050565b6000819050602082019050919050565b600073ffffffffffffffffffffffffffffffffffffffff82169050919050565b6000819050919050565b600062000448620004426200043c84620003fd565b6200041d565b620003fd565b9050919050565b60006200045c8262000427565b9050919050565b600062000470826200044f565b9050919050565b620004828162000463565b82525050565b600062000496838362000477565b60208301905092915050565b6000602082019050919050565b6000620004bc82620003d1565b620004c88185620003dc565b9350620004d583620003ed565b8060005b838110156200050c578151620004f0888262000488565b9750620004fd83620004a2565b925050600181019050620004d9565b5085935050505092915050565b60006020820190508181036000830152620005358184620004af565b905092915050565b6000604051905090565b600080fd5b600080fd5b600080fd5b6000601f19601f8301169050919050565b7f4e487b7100000000000000000000000000000000000000000000000000000000600052604160045260246000fd5b620005a18262000556565b810181811067ffffffffffffffff82111715620005c357620005c262000567565b5b80604052505050565b6000620005d86200053d565b9050620005e6828262000596565b919050565b600080fd5b600080fd5b600080fd5b600067ffffffffffffffff82111562000618576200061762000567565b5b620006238262000556565b9050602081019050919050565b82818337600083830152505050565b6000620006566200065084620005fa565b620005cc565b905082815260208101848484011115620006755762000674620005f5565b5b6200068284828562000630565b509392505050565b600082601f830112620006a257620006a1620005f0565b5b8135620006b48482602086016200063f565b91505092915050565b6000819050919050565b620006d281620006bd565b8114620006de57600080fd5b50565b600081359050620006f281620006c7565b92915050565b6000610120828403121562000712576200071162000551565b5b6200071f610120620005cc565b9050600082013567ffffffffffffffff811115620007425762000741620005eb565b5b62000750848285016200068a565b600083015250602082013567ffffffffffffffff811115620007775762000776620005eb565b5b62000785848285016200068a565b602083015250604082013567ffffffffffffffff811115620007ac57620007ab620005eb565b5b620007ba848285016200068a565b6040830152506060620007d084828501620006e1565b6060830152506080620007e684828501620006e1565b60808301525060a082013567ffffffffffffffff8111156200080d576200080c620005eb565b5b6200081b848285016200068a565b60a08301525060c082013567ffffffffffffffff811115620008425762000841620005eb565b5b62000850848285016200068a565b60c08301525060e06200086684828501620006e1565b60e08301525061010082013567ffffffffffffffff8111156200088e576200088d620005eb565b5b6200089c848285016200068a565b6101008301525092915050565b600067ffffffffffffffff821115620008c757620008c662000567565b5b602082029050602081019050919050565b600080fd5b600060c08284031215620008f657620008f562000551565b5b6200090260c0620005cc565b9050600082013567ffffffffffffffff811115620009255762000924620005eb565b5b62000933848285016200068a565b600083015250602082013567ffffffffffffffff8111156200095a5762000959620005eb565b5b62000968848285016200068a565b60208301525060406200097e84828501620006e1565b60408301525060606200099484828501620006e1565b6060830152506080620009aa84828501620006e1565b60808301525060a0620009c084828501620006e1565b60a08301525092915050565b6000620009e3620009dd84620008a9565b620005cc565b9050808382526020820190506020840283018581111562000a095762000a08620008d8565b5b835b8181101562000a5757803567ffffffffffffffff81111562000a325762000a31620005f0565b5b80860162000a418982620008dd565b8552602085019450505060208101905062000a0b565b5050509392505050565b600082601f83011262000a795762000a78620005f0565b5b813562000a8b848260208601620009cc565b91505092915050565b6000806040838503121562000aae5762000aad62000547565b5b600083013567ffffffffffffffff81111562000acf5762000ace6200054c565b5b62000add85828601620006f8565b925050602083013567ffffffffffffffff81111562000b015762000b006200054c565b5b62000b0f8582860162000a61565b9150509250929050565b62000b248162000463565b82525050565b600060208201905062000b41600083018462000b19565b92915050565b600062000b5482620003fd565b9050919050565b62000b668162000b47565b82525050565b600060208201905062000b83600083018462000b5b565b92915050565b60006020828403121562000ba25762000ba162000547565b5b600062000bb284828501620006e1565b91505092915050565b600081519050919050565b600082825260208201905092915050565b60005b8381101562000bf757808201518184015260208101905062000bda565b8381111562000c07576000848401525b50505050565b600062000c1a8262000bbb565b62000c26818562000bc6565b935062000c3881856020860162000bd7565b62000c438162000556565b840191505092915050565b6000606082019050818103600083015262000c6a818662000c0d565b9050818103602083015262000c80818562000c0d565b905062000c91604083018462000b5b565b949350505050565b600081519050919050565b600082825260208201905092915050565b6000819050602082019050919050565b600082825260208201905092915050565b600062000ce38262000bbb565b62000cef818562000cc5565b935062000d0181856020860162000bd7565b62000d0c8162000556565b840191505092915050565b62000d2281620006bd565b82525050565b600060c083016000830151848203600086015262000d47828262000cd6565b9150506020830151848203602086015262000d63828262000cd6565b915050604083015162000d7a604086018262000d17565b50606083015162000d8f606086018262000d17565b50608083015162000da4608086018262000d17565b5060a083015162000db960a086018262000d17565b508091505092915050565b600062000dd2838362000d28565b905092915050565b6000602082019050919050565b600062000df48262000c99565b62000e00818562000ca4565b93508360208202850162000e148562000cb5565b8060005b8581101562000e56578484038952815162000e34858262000dc4565b945062000e418362000dda565b925060208a0199505060018101905062000e18565b50829750879550505050505092915050565b6000604082019050818103600083015262000e84818562000de7565b905062000e95602083018462000b5b565b9392505050565b600061012083016000830151848203600086015262000ebc828262000cd6565b9150506020830151848203602086015262000ed8828262000cd6565b9150506040830151848203604086015262000ef4828262000cd6565b915050606083015162000f0b606086018262000d17565b50608083015162000f20608086018262000d17565b5060a083015184820360a086015262000f3a828262000cd6565b91505060c083015184820360c086015262000f56828262000cd6565b91505060e083015162000f6d60e086018262000d17565b5061010083015184820361010086015262000f89828262000cd6565b9150508091505092915050565b6000602082019050818103600083015262000fb2818462000e9c565b90509291505056fe60806040526000600c556001600d556002600e553480156200002057600080fd5b5060405162004d2f38038062004d2f8339818101604052810190620000469190620003b9565b828281600090805190602001906200006092919062000107565b5080600190805190602001906200007992919062000107565b50505033600b60006101000a81548173ffffffffffffffffffffffffffffffffffffffff021916908373ffffffffffffffffffffffffffffffffffffffff16021790555080600860006101000a81548173ffffffffffffffffffffffffffffffffffffffff021916908373ffffffffffffffffffffffffffffffffffffffff160217905550505050620004b8565b828054620001159062000482565b90600052602060002090601f01602090048101928262000139576000855562000185565b82601f106200015457805160ff191683800117855562000185565b8280016001018555821562000185579182015b828111156200018457825182559160200191906001019062000167565b5b50905062000194919062000198565b5090565b5b80821115620001b357600081600090555060010162000199565b5090565b6000604051905090565b600080fd5b600080fd5b600080fd5b600080fd5b6000601f19601f8301169050919050565b7f4e487b7100000000000000000000000000000000000000000000000000000000600052604160045260246000fd5b6200022082620001d5565b810181811067ffffffffffffffff82111715620002425762000241620001e6565b5b80604052505050565b600062000257620001b7565b905062000265828262000215565b919050565b600067ffffffffffffffff821115620002885762000287620001e6565b5b6200029382620001d5565b9050602081019050919050565b60005b83811015620002c0578082015181840152602081019050620002a3565b83811115620002d0576000848401525b50505050565b6000620002ed620002e7846200026a565b6200024b565b9050828152602081018484840111156200030c576200030b620001d0565b5b62000319848285620002a0565b509392505050565b600082601f830112620003395762000338620001cb565b5b81516200034b848260208601620002d6565b91505092915050565b600073ffffffffffffffffffffffffffffffffffffffff82169050919050565b6000620003818262000354565b9050919050565b620003938162000374565b81146200039f57600080fd5b50565b600081519050620003b38162000388565b92915050565b600080600060608486031215620003d557620003d4620001c1565b5b600084015167ffffffffffffffff811115620003f657620003f5620001c6565b5b620004048682870162000321565b935050602084015167ffffffffffffffff811115620004285762000427620001c6565b5b620004368682870162000321565b92505060406200044986828701620003a2565b9150509250925092565b7f4e487b7100000000000000000000000000000000000000000000000000000000600052602260045260246000fd5b600060028204905060018216806200049b57607f821691505b60208210811415620004b257620004b162000453565b5b50919050565b61486780620004c86000396000f3fe60806040526004361061014b5760003560e01c806378a2db88116100b6578063b2bdfa7b1161006f578063b2bdfa7b146104b2578063b88d4fde146104dd578063c87b56dd14610506578063d0f4fc0214610543578063e985e9c514610582578063f8547079146105bf5761014b565b806378a2db881461038d5780637d2211d6146103cf5780638aaf2686146103f857806395d89b4114610435578063a22cb46514610460578063a2668945146104895761014b565b80633d90cdaa116101085780633d90cdaa1461027257806342842e0e146102a557806352cc6be6146102ce578063545f68a3146102ea5780636352211e1461031357806370a08231146103505761014b565b806301ffc9a71461015057806306fdde031461018d578063081812fc146101b8578063095ea7b3146101f55780630fb3844c1461021e57806323b872dd14610249575b600080fd5b34801561015c57600080fd5b5061017760048036038101906101729190612bff565b6105ea565b6040516101849190612c47565b60405180910390f35b34801561019957600080fd5b506101a26106cc565b6040516101af9190612cfb565b60405180910390f35b3480156101c457600080fd5b506101df60048036038101906101da9190612d53565b61075e565b6040516101ec9190612dc1565b60405180910390f35b34801561020157600080fd5b5061021c60048036038101906102179190612e08565b6107e3565b005b34801561022a57600080fd5b506102336108fb565b6040516102409190612cfb565b60405180910390f35b34801561025557600080fd5b50610270600480360381019061026b9190612e48565b610989565b005b34801561027e57600080fd5b506102876109e9565b60405161029c99989796959493929190612eaa565b60405180910390f35b3480156102b157600080fd5b506102cc60048036038101906102c79190612e48565b610d55565b005b6102e860048036038101906102e39190613206565b610d75565b005b3480156102f657600080fd5b50610311600480360381019061030c91906133d7565b610fa4565b005b34801561031f57600080fd5b5061033a60048036038101906103359190612d53565b61107a565b6040516103479190612dc1565b60405180910390f35b34801561035c57600080fd5b5061037760048036038101906103729190613420565b61112c565b604051610384919061344d565b60405180910390f35b34801561039957600080fd5b506103b460048036038101906103af9190612d53565b6111e4565b6040516103c696959493929190613468565b60405180910390f35b3480156103db57600080fd5b506103f660048036038101906103f191906134d7565b611340565b005b34801561040457600080fd5b5061041f600480360381019061041a9190613420565b6113ea565b60405161042c919061362f565b60405180910390f35b34801561044157600080fd5b5061044a611593565b6040516104579190612cfb565b60405180910390f35b34801561046c57600080fd5b506104876004803603810190610482919061367d565b611625565b005b34801561049557600080fd5b506104b060048036038101906104ab9190613876565b61163b565b005b3480156104be57600080fd5b506104c76118cf565b6040516104d49190612dc1565b60405180910390f35b3480156104e957600080fd5b5061050460048036038101906104ff9190613973565b6118f5565b005b34801561051257600080fd5b5061052d60048036038101906105289190612d53565b611957565b60405161053a9190612cfb565b60405180910390f35b34801561054f57600080fd5b5061056a60048036038101906105659190612d53565b611aa9565b604051610579939291906139f6565b60405180910390f35b34801561058e57600080fd5b506105a960048036038101906105a49190613a2d565b611b03565b6040516105b69190612c47565b60405180910390f35b3480156105cb57600080fd5b506105d4611b97565b6040516105e1919061344d565b60405180910390f35b60007f80ac58cd000000000000000000000000000000000000000000000000000000007bffffffffffffffffffffffffffffffffffffffffffffffffffffffff1916827bffffffffffffffffffffffffffffffffffffffffffffffffffffffff191614806106b557507f5b5e139f000000000000000000000000000000000000000000000000000000007bffffffffffffffffffffffffffffffffffffffffffffffffffffffff1916827bffffffffffffffffffffffffffffffffffffffffffffffffffffffff1916145b806106c557506106c482611b9d565b5b9050919050565b6060600080546106db90613a9c565b80601f016020809104026020016040519081016040528092919081815260200182805461070790613a9c565b80156107545780601f1061072957610100808354040283529160200191610754565b820191906000526020600020905b81548152906001019060200180831161073757829003601f168201915b5050505050905090565b600061076982611c07565b6107a8576040517f08c379a000000000000000000000000000000000000000000000000000000000815260040161079f90613b40565b60405180910390fd5b6004600083815260200190815260200160002060009054906101000a900473ffffffffffffffffffffffffffffffffffffffff169050919050565b60006107ee8261107a565b90508073ffffffffffffffffffffffffffffffffffffffff168373ffffffffffffffffffffffffffffffffffffffff16141561085f576040517f08c379a000000000000000000000000000000000000000000000000000000000815260040161085690613bd2565b60405180910390fd5b8073ffffffffffffffffffffffffffffffffffffffff1661087e611c73565b73ffffffffffffffffffffffffffffffffffffffff1614806108ad57506108ac816108a7611c73565b611b03565b5b6108ec576040517f08c379a00000000000000000000000000000000000000000000000000000000081526004016108e390613c64565b60405180910390fd5b6108f68383611c7b565b505050565b600a805461090890613a9c565b80601f016020809104026020016040519081016040528092919081815260200182805461093490613a9c565b80156109815780601f1061095657610100808354040283529160200191610981565b820191906000526020600020905b81548152906001019060200180831161096457829003601f168201915b505050505081565b61099a610994611c73565b82611d34565b6109d9576040517f08c379a00000000000000000000000000000000000000000000000000000000081526004016109d090613cf6565b60405180910390fd5b6109e4838383611e12565b505050565b60118060000180546109fa90613a9c565b80601f0160208091040260200160405190810160405280929190818152602001828054610a2690613a9c565b8015610a735780601f10610a4857610100808354040283529160200191610a73565b820191906000526020600020905b815481529060010190602001808311610a5657829003601f168201915b505050505090806001018054610a8890613a9c565b80601f0160208091040260200160405190810160405280929190818152602001828054610ab490613a9c565b8015610b015780601f10610ad657610100808354040283529160200191610b01565b820191906000526020600020905b815481529060010190602001808311610ae457829003601f168201915b505050505090806002018054610b1690613a9c565b80601f0160208091040260200160405190810160405280929190818152602001828054610b4290613a9c565b8015610b8f5780601f10610b6457610100808354040283529160200191610b8f565b820191906000526020600020905b815481529060010190602001808311610b7257829003601f168201915b505050505090806003015490806004015490806005018054610bb090613a9c565b80601f0160208091040260200160405190810160405280929190818152602001828054610bdc90613a9c565b8015610c295780601f10610bfe57610100808354040283529160200191610c29565b820191906000526020600020905b815481529060010190602001808311610c0c57829003601f168201915b505050505090806006018054610c3e90613a9c565b80601f0160208091040260200160405190810160405280929190818152602001828054610c6a90613a9c565b8015610cb75780601f10610c8c57610100808354040283529160200191610cb7565b820191906000526020600020905b815481529060010190602001808311610c9a57829003601f168201915b505050505090806007015490806008018054610cd290613a9c565b80601f0160208091040260200160405190810160405280929190818152602001828054610cfe90613a9c565b8015610d4b5780601f10610d2057610100808354040283529160200191610d4b565b820191906000526020600020905b815481529060010190602001808311610d2e57829003601f168201915b5050505050905089565b610d70838383604051806020016040528060008152506118f5565b505050565b600b60009054906101000a900473ffffffffffffffffffffffffffffffffffffffff1673ffffffffffffffffffffffffffffffffffffffff163373ffffffffffffffffffffffffffffffffffffffff1614610e05576040517f08c379a0000000000000000000000000000000000000000000000000000000008152600401610dfc90613d62565b60405180910390fd5b610e0e81612079565b341015610e50576040517f08c379a0000000000000000000000000000000000000000000000000000000008152600401610e4790613dce565b60405180910390fd5b60005b8151811015610fa0576000828281518110610e7157610e70613dee565b5b6020026020010151905060006007549050610e8c308261226c565b610e9a818360200151612446565b60106040518060600160405280838152602001846040015173ffffffffffffffffffffffffffffffffffffffff168152602001846000015181525090806001815401808255809150506001900390600052602060002090600302016000909190919091506000820151816000015560208201518160010160006101000a81548173ffffffffffffffffffffffffffffffffffffffff021916908373ffffffffffffffffffffffffffffffffffffffff160217905550604082015181600201555050610f64816124ba565b50610f7381836040015161250d565b60076000815480929190610f8690613e4c565b919050555050508080610f9890613e4c565b915050610e53565b5050565b8060116000820151816000019080519060200190610fc3929190612ab9565b506020820151816001019080519060200190610fe0929190612ab9565b506040820151816002019080519060200190610ffd929190612ab9565b50606082015181600301556080820151816004015560a082015181600501908051906020019061102e929190612ab9565b5060c082015181600601908051906020019061104b929190612ab9565b5060e08201518160070155610100820151816008019080519060200190611073929190612ab9565b5090505050565b6000806002600084815260200190815260200160002060009054906101000a900473ffffffffffffffffffffffffffffffffffffffff169050600073ffffffffffffffffffffffffffffffffffffffff168173ffffffffffffffffffffffffffffffffffffffff161415611123576040517f08c379a000000000000000000000000000000000000000000000000000000000815260040161111a90613f07565b60405180910390fd5b80915050919050565b60008073ffffffffffffffffffffffffffffffffffffffff168273ffffffffffffffffffffffffffffffffffffffff16141561119d576040517f08c379a000000000000000000000000000000000000000000000000000000000815260040161119490613f99565b60405180910390fd5b600360008373ffffffffffffffffffffffffffffffffffffffff1673ffffffffffffffffffffffffffffffffffffffff168152602001908152602001600020549050919050565b600f81815481106111f457600080fd5b906000526020600020906006020160009150905080600001805461121790613a9c565b80601f016020809104026020016040519081016040528092919081815260200182805461124390613a9c565b80156112905780601f1061126557610100808354040283529160200191611290565b820191906000526020600020905b81548152906001019060200180831161127357829003601f168201915b5050505050908060010180546112a590613a9c565b80601f01602080910402602001604051908101604052809291908181526020018280546112d190613a9c565b801561131e5780601f106112f35761010080835404028352916020019161131e565b820191906000526020600020905b81548152906001019060200180831161130157829003601f168201915b5050505050908060020154908060030154908060040154908060050154905086565b600b60009054906101000a900473ffffffffffffffffffffffffffffffffffffffff1673ffffffffffffffffffffffffffffffffffffffff163373ffffffffffffffffffffffffffffffffffffffff16146113d0576040517f08c379a00000000000000000000000000000000000000000000000000000000081526004016113c790613d62565b60405180910390fd5b80600a90805190602001906113e6929190612ab9565b5050565b606060006113f78361112c565b67ffffffffffffffff8111156114105761140f612f66565b5b60405190808252806020026020018201604052801561144957816020015b611436612b3f565b81526020019060019003908161142e5790505b5090506000806114588561112c565b141561146857819250505061158e565b60005b6007548111611587578473ffffffffffffffffffffffffffffffffffffffff166114948261107a565b73ffffffffffffffffffffffffffffffffffffffff16141561157457601081815481106114c4576114c3613dee565b5b9060005260206000209060030201604051806060016040529081600082015481526020016001820160009054906101000a900473ffffffffffffffffffffffffffffffffffffffff1673ffffffffffffffffffffffffffffffffffffffff1673ffffffffffffffffffffffffffffffffffffffff16815260200160028201548152505083838151811061155a57611559613dee565b5b6020026020010181905250818061157090613e4c565b9250505b808061157f90613e4c565b91505061146b565b5081925050505b919050565b6060600180546115a290613a9c565b80601f01602080910402602001604051908101604052809291908181526020018280546115ce90613a9c565b801561161b5780601f106115f05761010080835404028352916020019161161b565b820191906000526020600020905b8154815290600101906020018083116115fe57829003601f168201915b5050505050905090565b611637611630611c73565b838361251c565b5050565b600b60009054906101000a900473ffffffffffffffffffffffffffffffffffffffff1673ffffffffffffffffffffffffffffffffffffffff163373ffffffffffffffffffffffffffffffffffffffff16146116cb576040517f08c379a00000000000000000000000000000000000000000000000000000000081526004016116c290613d62565b60405180910390fd5b80600860009054906101000a900473ffffffffffffffffffffffffffffffffffffffff1673ffffffffffffffffffffffffffffffffffffffff168173ffffffffffffffffffffffffffffffffffffffff161461175c576040517f08c379a000000000000000000000000000000000000000000000000000000000815260040161175390614005565b60405180910390fd5b60005b83518110156118c957600084828151811061177d5761177c613dee565b5b60200260200101519050600c548160400151141580156117a35750600d54816040015114155b80156117b55750600e54816040015114155b156117c757600c548160400181815250505b600c54816040015114156117e15760008160a00181815250505b600f6040518060c0016040528083600001518152602001836020015181526020018360400151815260200183606001518152602001836080015181526020018360a001518152509080600181540180825580915050600190039060005260206000209060060201600090919091909150600082015181600001908051906020019061186d929190612ab9565b50602082015181600101908051906020019061188a929190612ab9565b5060408201518160020155606082015181600301556080820151816004015560a0820151816005015550505080806118c190613e4c565b91505061175f565b50505050565b600860009054906101000a900473ffffffffffffffffffffffffffffffffffffffff1681565b611906611900611c73565b83611d34565b611945576040517f08c379a000000000000000000000000000000000000000000000000000000000815260040161193c90613cf6565b60405180910390fd5b61195184848484612689565b50505050565b606061196282611c07565b6119a1576040517f08c379a000000000000000000000000000000000000000000000000000000000815260040161199890614097565b60405180910390fd5b60006006600084815260200190815260200160002080546119c190613a9c565b80601f01602080910402602001604051908101604052809291908181526020018280546119ed90613a9c565b8015611a3a5780601f10611a0f57610100808354040283529160200191611a3a565b820191906000526020600020905b815481529060010190602001808311611a1d57829003601f168201915b505050505090506000611a4b6126e5565b9050600081511415611a61578192505050611aa4565b600082511115611a96578082604051602001611a7e9291906140f3565b60405160208183030381529060405292505050611aa4565b611a9f846126fc565b925050505b919050565b60108181548110611ab957600080fd5b90600052602060002090600302016000915090508060000154908060010160009054906101000a900473ffffffffffffffffffffffffffffffffffffffff16908060020154905083565b6000600560008473ffffffffffffffffffffffffffffffffffffffff1673ffffffffffffffffffffffffffffffffffffffff16815260200190815260200160002060008373ffffffffffffffffffffffffffffffffffffffff1673ffffffffffffffffffffffffffffffffffffffff16815260200190815260200160002060009054906101000a900460ff16905092915050565b60095481565b60007f01ffc9a7000000000000000000000000000000000000000000000000000000007bffffffffffffffffffffffffffffffffffffffffffffffffffffffff1916827bffffffffffffffffffffffffffffffffffffffffffffffffffffffff1916149050919050565b60008073ffffffffffffffffffffffffffffffffffffffff166002600084815260200190815260200160002060009054906101000a900473ffffffffffffffffffffffffffffffffffffffff1673ffffffffffffffffffffffffffffffffffffffff1614159050919050565b600033905090565b816004600083815260200190815260200160002060006101000a81548173ffffffffffffffffffffffffffffffffffffffff021916908373ffffffffffffffffffffffffffffffffffffffff160217905550808273ffffffffffffffffffffffffffffffffffffffff16611cee8361107a565b73ffffffffffffffffffffffffffffffffffffffff167f8c5be1e5ebec7d5bd14f71427d1e84f3dd0314c0f7b2291e5b200ac8c7c3b92560405160405180910390a45050565b6000611d3f82611c07565b611d7e576040517f08c379a0000000000000000000000000000000000000000000000000000000008152600401611d7590614189565b60405180910390fd5b6000611d898361107a565b90508073ffffffffffffffffffffffffffffffffffffffff168473ffffffffffffffffffffffffffffffffffffffff161480611df857508373ffffffffffffffffffffffffffffffffffffffff16611de08461075e565b73ffffffffffffffffffffffffffffffffffffffff16145b80611e095750611e088185611b03565b5b91505092915050565b8273ffffffffffffffffffffffffffffffffffffffff16611e328261107a565b73ffffffffffffffffffffffffffffffffffffffff1614611e88576040517f08c379a0000000000000000000000000000000000000000000000000000000008152600401611e7f9061421b565b60405180910390fd5b600073ffffffffffffffffffffffffffffffffffffffff168273ffffffffffffffffffffffffffffffffffffffff161415611ef8576040517f08c379a0000000000000000000000000000000000000000000000000000000008152600401611eef906142ad565b60405180910390fd5b611f038383836127a3565b611f0e600082611c7b565b6001600360008573ffffffffffffffffffffffffffffffffffffffff1673ffffffffffffffffffffffffffffffffffffffff1681526020019081526020016000206000828254611f5e91906142cd565b925050819055506001600360008473ffffffffffffffffffffffffffffffffffffffff1673ffffffffffffffffffffffffffffffffffffffff1681526020019081526020016000206000828254611fb59190614301565b92505081905550816002600083815260200190815260200160002060006101000a81548173ffffffffffffffffffffffffffffffffffffffff021916908373ffffffffffffffffffffffffffffffffffffffff160217905550808273ffffffffffffffffffffffffffffffffffffffff168473ffffffffffffffffffffffffffffffffffffffff167fddf252ad1be2c89b69c2b068fc378daa952ba7f163c4a11628f55a4df523b3ef60405160405180910390a46120748383836127a8565b505050565b6000806000905060005b8351811015612262576000600f8583815181106120a3576120a2613dee565b5b602002602001015160000151815481106120c0576120bf613dee565b5b90600052602060002090600602016040518060c00160405290816000820180546120e990613a9c565b80601f016020809104026020016040519081016040528092919081815260200182805461211590613a9c565b80156121625780601f1061213757610100808354040283529160200191612162565b820191906000526020600020905b81548152906001019060200180831161214557829003601f168201915b5050505050815260200160018201805461217b90613a9c565b80601f01602080910402602001604051908101604052809291908181526020018280546121a790613a9c565b80156121f45780601f106121c9576101008083540402835291602001916121f4565b820191906000526020600020905b8154815290600101906020018083116121d757829003601f168201915b505050505081526020016002820154815260200160038201548152602001600482015481526020016005820154815250509050600e548160400151141561223b575061224f565b8060a001518361224b9190614301565b9250505b808061225a90613e4c565b915050612083565b5080915050919050565b600073ffffffffffffffffffffffffffffffffffffffff168273ffffffffffffffffffffffffffffffffffffffff1614156122dc576040517f08c379a00000000000000000000000000000000000000000000000000000000081526004016122d3906143a3565b60405180910390fd5b6122e581611c07565b15612325576040517f08c379a000000000000000000000000000000000000000000000000000000000815260040161231c9061440f565b60405180910390fd5b612331600083836127a3565b6001600360008473ffffffffffffffffffffffffffffffffffffffff1673ffffffffffffffffffffffffffffffffffffffff16815260200190815260200160002060008282546123819190614301565b92505081905550816002600083815260200190815260200160002060006101000a81548173ffffffffffffffffffffffffffffffffffffffff021916908373ffffffffffffffffffffffffffffffffffffffff160217905550808273ffffffffffffffffffffffffffffffffffffffff16600073ffffffffffffffffffffffffffffffffffffffff167fddf252ad1be2c89b69c2b068fc378daa952ba7f163c4a11628f55a4df523b3ef60405160405180910390a4612442600083836127a8565b5050565b61244f82611c07565b61248e576040517f08c379a0000000000000000000000000000000000000000000000000000000008152600401612485906144a1565b60405180910390fd5b806006600084815260200190815260200160002090805190602001906124b5929190612ab9565b505050565b60006124c582611c07565b612504576040517f08c379a00000000000000000000000000000000000000000000000000000000081526004016124fb9061450d565b60405180910390fd5b60019050919050565b612518308284611e12565b5050565b8173ffffffffffffffffffffffffffffffffffffffff168373ffffffffffffffffffffffffffffffffffffffff16141561258b576040517f08c379a000000000000000000000000000000000000000000000000000000000815260040161258290614579565b60405180910390fd5b80600560008573ffffffffffffffffffffffffffffffffffffffff1673ffffffffffffffffffffffffffffffffffffffff16815260200190815260200160002060008473ffffffffffffffffffffffffffffffffffffffff1673ffffffffffffffffffffffffffffffffffffffff16815260200190815260200160002060006101000a81548160ff0219169083151502179055508173ffffffffffffffffffffffffffffffffffffffff168373ffffffffffffffffffffffffffffffffffffffff167f17307eab39ab6107e8899845ad3d59bd9653f200f220920489ca2b5937696c318360405161267c9190612c47565b60405180910390a3505050565b612694848484611e12565b6126a0848484846127ad565b6126df576040517f08c379a00000000000000000000000000000000000000000000000000000000081526004016126d69061460b565b60405180910390fd5b50505050565b606060405180602001604052806000815250905090565b606061270782611c07565b612746576040517f08c379a000000000000000000000000000000000000000000000000000000000815260040161273d9061469d565b60405180910390fd5b60006127506126e5565b90506000815111612770576040518060200160405280600081525061279b565b8061277a84612935565b60405160200161278b9291906140f3565b6040516020818303038152906040525b915050919050565b505050565b505050565b60006127ce8473ffffffffffffffffffffffffffffffffffffffff16612a96565b15612928578373ffffffffffffffffffffffffffffffffffffffff1663150b7a026127f7611c73565b8786866040518563ffffffff1660e01b81526004016128199493929190614712565b6020604051808303816000875af192505050801561285557506040513d601f19601f820116820180604052508101906128529190614773565b60015b6128d8573d8060008114612885576040519150601f19603f3d011682016040523d82523d6000602084013e61288a565b606091505b506000815114156128d0576040517f08c379a00000000000000000000000000000000000000000000000000000000081526004016128c79061460b565b60405180910390fd5b805181602001fd5b63150b7a0260e01b7bffffffffffffffffffffffffffffffffffffffffffffffffffffffff1916817bffffffffffffffffffffffffffffffffffffffffffffffffffffffff19161491505061292d565b600190505b949350505050565b6060600082141561297d576040518060400160405280600181526020017f30000000000000000000000000000000000000000000000000000000000000008152509050612a91565b600082905060005b600082146129af57808061299890613e4c565b915050600a826129a891906147cf565b9150612985565b60008167ffffffffffffffff8111156129cb576129ca612f66565b5b6040519080825280601f01601f1916602001820160405280156129fd5781602001600182028036833780820191505090505b5090505b60008514612a8a57600182612a1691906142cd565b9150600a85612a259190614800565b6030612a319190614301565b60f81b818381518110612a4757612a46613dee565b5b60200101907effffffffffffffffffffffffffffffffffffffffffffffffffffffffffffff1916908160001a905350600a85612a8391906147cf565b9450612a01565b8093505050505b919050565b6000808273ffffffffffffffffffffffffffffffffffffffff163b119050919050565b828054612ac590613a9c565b90600052602060002090601f016020900481019282612ae75760008555612b2e565b82601f10612b0057805160ff1916838001178555612b2e565b82800160010185558215612b2e579182015b82811115612b2d578251825591602001919060010190612b12565b5b509050612b3b9190612b76565b5090565b604051806060016040528060008152602001600073ffffffffffffffffffffffffffffffffffffffff168152602001600081525090565b5b80821115612b8f576000816000905550600101612b77565b5090565b6000604051905090565b600080fd5b600080fd5b60007fffffffff0000000000000000000000000000000000000000000000000000000082169050919050565b612bdc81612ba7565b8114612be757600080fd5b50565b600081359050612bf981612bd3565b92915050565b600060208284031215612c1557612c14612b9d565b5b6000612c2384828501612bea565b91505092915050565b60008115159050919050565b612c4181612c2c565b82525050565b6000602082019050612c5c6000830184612c38565b92915050565b600081519050919050565b600082825260208201905092915050565b60005b83811015612c9c578082015181840152602081019050612c81565b83811115612cab576000848401525b50505050565b6000601f19601f8301169050919050565b6000612ccd82612c62565b612cd78185612c6d565b9350612ce7818560208601612c7e565b612cf081612cb1565b840191505092915050565b60006020820190508181036000830152612d158184612cc2565b905092915050565b6000819050919050565b612d3081612d1d565b8114612d3b57600080fd5b50565b600081359050612d4d81612d27565b92915050565b600060208284031215612d6957612d68612b9d565b5b6000612d7784828501612d3e565b91505092915050565b600073ffffffffffffffffffffffffffffffffffffffff82169050919050565b6000612dab82612d80565b9050919050565b612dbb81612da0565b82525050565b6000602082019050612dd66000830184612db2565b92915050565b612de581612da0565b8114612df057600080fd5b50565b600081359050612e0281612ddc565b92915050565b60008060408385031215612e1f57612e1e612b9d565b5b6000612e2d85828601612df3565b9250506020612e3e85828601612d3e565b9150509250929050565b600080600060608486031215612e6157612e60612b9d565b5b6000612e6f86828701612df3565b9350506020612e8086828701612df3565b9250506040612e9186828701612d3e565b9150509250925092565b612ea481612d1d565b82525050565b6000610120820190508181036000830152612ec5818c612cc2565b90508181036020830152612ed9818b612cc2565b90508181036040830152612eed818a612cc2565b9050612efc6060830189612e9b565b612f096080830188612e9b565b81810360a0830152612f1b8187612cc2565b905081810360c0830152612f2f8186612cc2565b9050612f3e60e0830185612e9b565b818103610100830152612f518184612cc2565b90509a9950505050505050505050565b600080fd5b7f4e487b7100000000000000000000000000000000000000000000000000000000600052604160045260246000fd5b612f9e82612cb1565b810181811067ffffffffffffffff82111715612fbd57612fbc612f66565b5b80604052505050565b6000612fd0612b93565b9050612fdc8282612f95565b919050565b600067ffffffffffffffff821115612ffc57612ffb612f66565b5b602082029050602081019050919050565b600080fd5b600080fd5b600080fd5b600080fd5b600067ffffffffffffffff82111561303c5761303b612f66565b5b61304582612cb1565b9050602081019050919050565b82818337600083830152505050565b600061307461306f84613021565b612fc6565b9050828152602081018484840111156130905761308f61301c565b5b61309b848285613052565b509392505050565b600082601f8301126130b8576130b7612f61565b5b81356130c8848260208601613061565b91505092915050565b6000606082840312156130e7576130e6613012565b5b6130f16060612fc6565b9050600061310184828501612d3e565b600083015250602082013567ffffffffffffffff81111561312557613124613017565b5b613131848285016130a3565b602083015250604061314584828501612df3565b60408301525092915050565b600061316461315f84612fe1565b612fc6565b905080838252602082019050602084028301858111156131875761318661300d565b5b835b818110156131ce57803567ffffffffffffffff8111156131ac576131ab612f61565b5b8086016131b989826130d1565b85526020850194505050602081019050613189565b5050509392505050565b600082601f8301126131ed576131ec612f61565b5b81356131fd848260208601613151565b91505092915050565b60006020828403121561321c5761321b612b9d565b5b600082013567ffffffffffffffff81111561323a57613239612ba2565b5b613246848285016131d8565b91505092915050565b6000610120828403121561326657613265613012565b5b613271610120612fc6565b9050600082013567ffffffffffffffff81111561329157613290613017565b5b61329d848285016130a3565b600083015250602082013567ffffffffffffffff8111156132c1576132c0613017565b5b6132cd848285016130a3565b602083015250604082013567ffffffffffffffff8111156132f1576132f0613017565b5b6132fd848285016130a3565b604083015250606061331184828501612d3e565b606083015250608061332584828501612d3e565b60808301525060a082013567ffffffffffffffff81111561334957613348613017565b5b613355848285016130a3565b60a08301525060c082013567ffffffffffffffff81111561337957613378613017565b5b613385848285016130a3565b60c08301525060e061339984828501612d3e565b60e08301525061010082013567ffffffffffffffff8111156133be576133bd613017565b5b6133ca848285016130a3565b6101008301525092915050565b6000602082840312156133ed576133ec612b9d565b5b600082013567ffffffffffffffff81111561340b5761340a612ba2565b5b6134178482850161324f565b91505092915050565b60006020828403121561343657613435612b9d565b5b600061344484828501612df3565b91505092915050565b60006020820190506134626000830184612e9b565b92915050565b600060c08201905081810360008301526134828189612cc2565b905081810360208301526134968188612cc2565b90506134a56040830187612e9b565b6134b26060830186612e9b565b6134bf6080830185612e9b565b6134cc60a0830184612e9b565b979650505050505050565b6000602082840312156134ed576134ec612b9d565b5b600082013567ffffffffffffffff81111561350b5761350a612ba2565b5b613517848285016130a3565b91505092915050565b600081519050919050565b600082825260208201905092915050565b6000819050602082019050919050565b61355581612d1d565b82525050565b61356481612da0565b82525050565b606082016000820151613580600085018261354c565b506020820151613593602085018261355b565b5060408201516135a6604085018261354c565b50505050565b60006135b8838361356a565b60608301905092915050565b6000602082019050919050565b60006135dc82613520565b6135e6818561352b565b93506135f18361353c565b8060005b8381101561362257815161360988826135ac565b9750613614836135c4565b9250506001810190506135f5565b5085935050505092915050565b6000602082019050818103600083015261364981846135d1565b905092915050565b61365a81612c2c565b811461366557600080fd5b50565b60008135905061367781613651565b92915050565b6000806040838503121561369457613693612b9d565b5b60006136a285828601612df3565b92505060206136b385828601613668565b9150509250929050565b600067ffffffffffffffff8211156136d8576136d7612f66565b5b602082029050602081019050919050565b600060c082840312156136ff576136fe613012565b5b61370960c0612fc6565b9050600082013567ffffffffffffffff81111561372957613728613017565b5b613735848285016130a3565b600083015250602082013567ffffffffffffffff81111561375957613758613017565b5b613765848285016130a3565b602083015250604061377984828501612d3e565b604083015250606061378d84828501612d3e565b60608301525060806137a184828501612d3e565b60808301525060a06137b584828501612d3e565b60a08301525092915050565b60006137d46137cf846136bd565b612fc6565b905080838252602082019050602084028301858111156137f7576137f661300d565b5b835b8181101561383e57803567ffffffffffffffff81111561381c5761381b612f61565b5b80860161382989826136e9565b855260208501945050506020810190506137f9565b5050509392505050565b600082601f83011261385d5761385c612f61565b5b813561386d8482602086016137c1565b91505092915050565b6000806040838503121561388d5761388c612b9d565b5b600083013567ffffffffffffffff8111156138ab576138aa612ba2565b5b6138b785828601613848565b92505060206138c885828601612df3565b9150509250929050565b600067ffffffffffffffff8211156138ed576138ec612f66565b5b6138f682612cb1565b9050602081019050919050565b6000613916613911846138d2565b612fc6565b9050828152602081018484840111156139325761393161301c565b5b61393d848285613052565b509392505050565b600082601f83011261395a57613959612f61565b5b813561396a848260208601613903565b91505092915050565b6000806000806080858703121561398d5761398c612b9d565b5b600061399b87828801612df3565b94505060206139ac87828801612df3565b93505060406139bd87828801612d3e565b925050606085013567ffffffffffffffff8111156139de576139dd612ba2565b5b6139ea87828801613945565b91505092959194509250565b6000606082019050613a0b6000830186612e9b565b613a186020830185612db2565b613a256040830184612e9b565b949350505050565b60008060408385031215613a4457613a43612b9d565b5b6000613a5285828601612df3565b9250506020613a6385828601612df3565b9150509250929050565b7f4e487b7100000000000000000000000000000000000000000000000000000000600052602260045260246000fd5b60006002820490506001821680613ab457607f821691505b60208210811415613ac857613ac7613a6d565b5b50919050565b7f4552433732313a20617070726f76656420717565727920666f72206e6f6e657860008201527f697374656e7420746f6b656e0000000000000000000000000000000000000000602082015250565b6000613b2a602c83612c6d565b9150613b3582613ace565b604082019050919050565b60006020820190508181036000830152613b5981613b1d565b9050919050565b7f4552433732313a20617070726f76616c20746f2063757272656e74206f776e6560008201527f7200000000000000000000000000000000000000000000000000000000000000602082015250565b6000613bbc602183612c6d565b9150613bc782613b60565b604082019050919050565b60006020820190508181036000830152613beb81613baf565b9050919050565b7f4552433732313a20617070726f76652063616c6c6572206973206e6f74206f7760008201527f6e6572206e6f7220617070726f76656420666f7220616c6c0000000000000000602082015250565b6000613c4e603883612c6d565b9150613c5982613bf2565b604082019050919050565b60006020820190508181036000830152613c7d81613c41565b9050919050565b7f4552433732313a207472616e736665722063616c6c6572206973206e6f74206f60008201527f776e6572206e6f7220617070726f766564000000000000000000000000000000602082015250565b6000613ce0603183612c6d565b9150613ceb82613c84565b604082019050919050565b60006020820190508181036000830152613d0f81613cd3565b9050919050565b7f596f75206e65656420746f207573652074686520666163746f72790000000000600082015250565b6000613d4c601b83612c6d565b9150613d5782613d16565b602082019050919050565b60006020820190508181036000830152613d7b81613d3f565b9050919050565b7f546865207469636b65747320636f7374206d6f72650000000000000000000000600082015250565b6000613db8601583612c6d565b9150613dc382613d82565b602082019050919050565b60006020820190508181036000830152613de781613dab565b9050919050565b7f4e487b7100000000000000000000000000000000000000000000000000000000600052603260045260246000fd5b7f4e487b7100000000000000000000000000000000000000000000000000000000600052601160045260246000fd5b6000613e5782612d1d565b91507fffffffffffffffffffffffffffffffffffffffffffffffffffffffffffffffff821415613e8a57613e89613e1d565b5b600182019050919050565b7f4552433732313a206f776e657220717565727920666f72206e6f6e657869737460008201527f656e7420746f6b656e0000000000000000000000000000000000000000000000602082015250565b6000613ef1602983612c6d565b9150613efc82613e95565b604082019050919050565b60006020820190508181036000830152613f2081613ee4565b9050919050565b7f4552433732313a2062616c616e636520717565727920666f7220746865207a6560008201527f726f206164647265737300000000000000000000000000000000000000000000602082015250565b6000613f83602a83612c6d565b9150613f8e82613f27565b604082019050919050565b60006020820190508181036000830152613fb281613f76565b9050919050565b7f4163636573732072657374726963746564210000000000000000000000000000600082015250565b6000613fef601283612c6d565b9150613ffa82613fb9565b602082019050919050565b6000602082019050818103600083015261401e81613fe2565b9050919050565b7f45524337323155524953746f726167653a2055524920717565727920666f722060008201527f6e6f6e6578697374656e7420746f6b656e000000000000000000000000000000602082015250565b6000614081603183612c6d565b915061408c82614025565b604082019050919050565b600060208201905081810360008301526140b081614074565b9050919050565b600081905092915050565b60006140cd82612c62565b6140d781856140b7565b93506140e7818560208601612c7e565b80840191505092915050565b60006140ff82856140c2565b915061410b82846140c2565b91508190509392505050565b7f4552433732313a206f70657261746f7220717565727920666f72206e6f6e657860008201527f697374656e7420746f6b656e0000000000000000000000000000000000000000602082015250565b6000614173602c83612c6d565b915061417e82614117565b604082019050919050565b600060208201905081810360008301526141a281614166565b9050919050565b7f4552433732313a207472616e736665722066726f6d20696e636f72726563742060008201527f6f776e6572000000000000000000000000000000000000000000000000000000602082015250565b6000614205602583612c6d565b9150614210826141a9565b604082019050919050565b60006020820190508181036000830152614234816141f8565b9050919050565b7f4552433732313a207472616e7366657220746f20746865207a65726f2061646460008201527f7265737300000000000000000000000000000000000000000000000000000000602082015250565b6000614297602483612c6d565b91506142a28261423b565b604082019050919050565b600060208201905081810360008301526142c68161428a565b9050919050565b60006142d882612d1d565b91506142e383612d1d565b9250828210156142f6576142f5613e1d565b5b828203905092915050565b600061430c82612d1d565b915061431783612d1d565b9250827fffffffffffffffffffffffffffffffffffffffffffffffffffffffffffffffff0382111561434c5761434b613e1d565b5b828201905092915050565b7f4552433732313a206d696e7420746f20746865207a65726f2061646472657373600082015250565b600061438d602083612c6d565b915061439882614357565b602082019050919050565b600060208201905081810360008301526143bc81614380565b9050919050565b7f4552433732313a20746f6b656e20616c7265616479206d696e74656400000000600082015250565b60006143f9601c83612c6d565b9150614404826143c3565b602082019050919050565b60006020820190508181036000830152614428816143ec565b9050919050565b7f45524337323155524953746f726167653a2055524920736574206f66206e6f6e60008201527f6578697374656e7420746f6b656e000000000000000000000000000000000000602082015250565b600061448b602e83612c6d565b91506144968261442f565b604082019050919050565b600060208201905081810360008301526144ba8161447e565b9050919050565b7f4572726f722c2077726f6e6720546f6b656e2069640000000000000000000000600082015250565b60006144f7601583612c6d565b9150614502826144c1565b602082019050919050565b60006020820190508181036000830152614526816144ea565b9050919050565b7f4552433732313a20617070726f766520746f2063616c6c657200000000000000600082015250565b6000614563601983612c6d565b915061456e8261452d565b602082019050919050565b6000602082019050818103600083015261459281614556565b9050919050565b7f4552433732313a207472616e7366657220746f206e6f6e20455243373231526560008201527f63656976657220696d706c656d656e7465720000000000000000000000000000602082015250565b60006145f5603283612c6d565b915061460082614599565b604082019050919050565b60006020820190508181036000830152614624816145e8565b9050919050565b7f4552433732314d657461646174613a2055524920717565727920666f72206e6f60008201527f6e6578697374656e7420746f6b656e0000000000000000000000000000000000602082015250565b6000614687602f83612c6d565b91506146928261462b565b604082019050919050565b600060208201905081810360008301526146b68161467a565b9050919050565b600081519050919050565b600082825260208201905092915050565b60006146e4826146bd565b6146ee81856146c8565b93506146fe818560208601612c7e565b61470781612cb1565b840191505092915050565b60006080820190506147276000830187612db2565b6147346020830186612db2565b6147416040830185612e9b565b818103606083015261475381846146d9565b905095945050505050565b60008151905061476d81612bd3565b92915050565b60006020828403121561478957614788612b9d565b5b60006147978482850161475e565b91505092915050565b7f4e487b7100000000000000000000000000000000000000000000000000000000600052601260045260246000fd5b60006147da82612d1d565b91506147e583612d1d565b9250826147f5576147f46147a0565b5b828204905092915050565b600061480b82612d1d565b915061481683612d1d565b925082614826576148256147a0565b5b82820690509291505056fea26469706673582212206ba4c3cdb47a718779d1dc469b806300697538b747167ab6571755d00671a2f964736f6c634300080c0033a2646970667358221220a7b5b8907d0e853c2b584b98e77af842b26fa73a8de4be6f8a381fb3c5429d6f64736f6c634300080c0033",
  "immutableReferences": {},
  "source": "// SPDX-License-Identifier: GPL-3.0\npragma solidity >=0.6.0 <0.9.0;\n\nimport \"./Event.sol\";\nimport \"./Administrator.sol\";\n\ncontract EventFactory is Administrator {\n    Event[] public _events;\n    uint256 EVENT_COUNTER;\n    uint256 public_event = 1;\n    uint256 private_event = 0;\n\n    function allEvents() public view returns (Event[] memory) {\n        return _events;\n    }\n\n    function addEvent(\n        BlocTick.EventData memory eventData,\n        BlocTick.Ticket[] memory tickets\n    ) external returns (Event) {\n        if (\n            eventData.visibility != private_event &&\n            eventData.visibility != public_event\n        ) {\n            eventData.visibility = public_event;\n        }\n        Event e = new Event(eventData.name, eventData.ticker, msg.sender);\n        e.storeTickets(tickets, msg.sender);\n        e.setEventData(eventData);\n        _events.push(e);\n        return e;\n    }\n}\n",
  "sourcePath": "/workspace/nft-ticketting-contracts/backend/contracts/EventFactory.sol",
  "compiler": {
    "name": "solc",
    "version": "0.8.12+commit.f00d7308.Emscripten.clang"
  },
  "schemaVersion": "3.4.5",
  "updatedAt": "2022-03-08T14:56:57.871Z",
  "networkType": "ethereum",
  "devdoc": {
    "kind": "dev",
    "methods": {},
    "version": 1
  },
  "userdoc": {
    "kind": "user",
    "methods": {},
    "version": 1
  }
}