{
  "contractName": "Event",
  "abi": [
    {
      "inputs": [
        {
          "internalType": "string",
          "name": "name",
          "type": "string"
        },
        {
          "internalType": "string",
          "name": "ticker",
          "type": "string"
        },
        {
          "internalType": "address",
          "name": "__owner",
          "type": "address"
        }
      ],
      "stateMutability": "nonpayable",
      "type": "constructor"
    },
    {
      "anonymous": false,
      "inputs": [
        {
          "indexed": true,
          "internalType": "address",
          "name": "owner",
          "type": "address"
        },
        {
          "indexed": true,
          "internalType": "address",
          "name": "approved",
          "type": "address"
        },
        {
          "indexed": true,
          "internalType": "uint256",
          "name": "tokenId",
          "type": "uint256"
        }
      ],
      "name": "Approval",
      "type": "event"
    },
    {
      "anonymous": false,
      "inputs": [
        {
          "indexed": true,
          "internalType": "address",
          "name": "owner",
          "type": "address"
        },
        {
          "indexed": true,
          "internalType": "address",
          "name": "operator",
          "type": "address"
        },
        {
          "indexed": false,
          "internalType": "bool",
          "name": "approved",
          "type": "bool"
        }
      ],
      "name": "ApprovalForAll",
      "type": "event"
    },
    {
      "anonymous": false,
      "inputs": [
        {
          "indexed": true,
          "internalType": "address",
          "name": "from",
          "type": "address"
        },
        {
          "indexed": true,
          "internalType": "address",
          "name": "to",
          "type": "address"
        },
        {
          "indexed": true,
          "internalType": "uint256",
          "name": "tokenId",
          "type": "uint256"
        }
      ],
      "name": "Transfer",
      "type": "event"
    },
    {
      "inputs": [],
      "name": "_created_at",
      "outputs": [
        {
          "internalType": "uint256",
          "name": "",
          "type": "uint256"
        }
      ],
      "stateMutability": "view",
      "type": "function"
    },
    {
      "inputs": [],
      "name": "_owner",
      "outputs": [
        {
          "internalType": "address",
          "name": "",
          "type": "address"
        }
      ],
      "stateMutability": "view",
      "type": "function"
    },
    {
      "inputs": [],
      "name": "_status",
      "outputs": [
        {
          "internalType": "string",
          "name": "",
          "type": "string"
        }
      ],
      "stateMutability": "view",
      "type": "function"
    },
    {
      "inputs": [
        {
          "internalType": "address",
          "name": "to",
          "type": "address"
        },
        {
          "internalType": "uint256",
          "name": "tokenId",
          "type": "uint256"
        }
      ],
      "name": "approve",
      "outputs": [],
      "stateMutability": "nonpayable",
      "type": "function"
    },
    {
      "inputs": [
        {
          "internalType": "address",
          "name": "owner",
          "type": "address"
        }
      ],
      "name": "balanceOf",
      "outputs": [
        {
          "internalType": "uint256",
          "name": "",
          "type": "uint256"
        }
      ],
      "stateMutability": "view",
      "type": "function"
    },
    {
      "inputs": [
        {
          "internalType": "uint256",
          "name": "tokenId",
          "type": "uint256"
        }
      ],
      "name": "getApproved",
      "outputs": [
        {
          "internalType": "address",
          "name": "",
          "type": "address"
        }
      ],
      "stateMutability": "view",
      "type": "function"
    },
    {
      "inputs": [
        {
          "internalType": "address",
          "name": "owner",
          "type": "address"
        },
        {
          "internalType": "address",
          "name": "operator",
          "type": "address"
        }
      ],
      "name": "isApprovedForAll",
      "outputs": [
        {
          "internalType": "bool",
          "name": "",
          "type": "bool"
        }
      ],
      "stateMutability": "view",
      "type": "function"
    },
    {
      "inputs": [],
      "name": "name",
      "outputs": [
        {
          "internalType": "string",
          "name": "",
          "type": "string"
        }
      ],
      "stateMutability": "view",
      "type": "function"
    },
    {
      "inputs": [
        {
          "internalType": "uint256",
          "name": "tokenId",
          "type": "uint256"
        }
      ],
      "name": "ownerOf",
      "outputs": [
        {
          "internalType": "address",
          "name": "",
          "type": "address"
        }
      ],
      "stateMutability": "view",
      "type": "function"
    },
    {
      "inputs": [
        {
          "internalType": "address",
          "name": "from",
          "type": "address"
        },
        {
          "internalType": "address",
          "name": "to",
          "type": "address"
        },
        {
          "internalType": "uint256",
          "name": "tokenId",
          "type": "uint256"
        }
      ],
      "name": "safeTransferFrom",
      "outputs": [],
      "stateMutability": "nonpayable",
      "type": "function"
    },
    {
      "inputs": [
        {
          "internalType": "address",
          "name": "from",
          "type": "address"
        },
        {
          "internalType": "address",
          "name": "to",
          "type": "address"
        },
        {
          "internalType": "uint256",
          "name": "tokenId",
          "type": "uint256"
        },
        {
          "internalType": "bytes",
          "name": "_data",
          "type": "bytes"
        }
      ],
      "name": "safeTransferFrom",
      "outputs": [],
      "stateMutability": "nonpayable",
      "type": "function"
    },
    {
      "inputs": [
        {
          "internalType": "address",
          "name": "operator",
          "type": "address"
        },
        {
          "internalType": "bool",
          "name": "approved",
          "type": "bool"
        }
      ],
      "name": "setApprovalForAll",
      "outputs": [],
      "stateMutability": "nonpayable",
      "type": "function"
    },
    {
      "inputs": [
        {
          "internalType": "bytes4",
          "name": "interfaceId",
          "type": "bytes4"
        }
      ],
      "name": "supportsInterface",
      "outputs": [
        {
          "internalType": "bool",
          "name": "",
          "type": "bool"
        }
      ],
      "stateMutability": "view",
      "type": "function"
    },
    {
      "inputs": [],
      "name": "symbol",
      "outputs": [
        {
          "internalType": "string",
          "name": "",
          "type": "string"
        }
      ],
      "stateMutability": "view",
      "type": "function"
    },
    {
      "inputs": [
        {
          "internalType": "uint256",
          "name": "tokenId",
          "type": "uint256"
        }
      ],
      "name": "tokenURI",
      "outputs": [
        {
          "internalType": "string",
          "name": "",
          "type": "string"
        }
      ],
      "stateMutability": "view",
      "type": "function"
    },
    {
      "inputs": [
        {
          "internalType": "address",
          "name": "from",
          "type": "address"
        },
        {
          "internalType": "address",
          "name": "to",
          "type": "address"
        },
        {
          "internalType": "uint256",
          "name": "tokenId",
          "type": "uint256"
        }
      ],
      "name": "transferFrom",
      "outputs": [],
      "stateMutability": "nonpayable",
      "type": "function"
    },
    {
      "inputs": [
        {
          "components": [
            {
              "internalType": "string",
              "name": "purchaseId",
              "type": "string"
            },
            {
              "internalType": "uint256",
              "name": "ticketId",
              "type": "uint256"
            },
            {
              "internalType": "string",
              "name": "tokenURI",
              "type": "string"
            },
            {
              "internalType": "address",
              "name": "buyer",
              "type": "address"
            },
            {
              "internalType": "uint256",
              "name": "cost",
              "type": "uint256"
            }
          ],
          "internalType": "struct BlocTick.TicketPurchase[]",
          "name": "purchases",
          "type": "tuple[]"
        }
      ],
      "name": "purchaseTickets",
      "outputs": [],
      "stateMutability": "payable",
      "type": "function"
    },
    {
      "inputs": [
        {
          "components": [
            {
              "internalType": "string",
              "name": "name",
              "type": "string"
            },
            {
              "internalType": "string",
              "name": "ticker",
              "type": "string"
            },
            {
              "internalType": "string",
              "name": "host_name",
              "type": "string"
            },
            {
              "internalType": "string",
              "name": "starts_on",
              "type": "string"
            },
            {
              "internalType": "string",
              "name": "ends_on",
              "type": "string"
            },
            {
              "internalType": "string",
              "name": "category",
              "type": "string"
            },
            {
              "internalType": "string",
              "name": "description",
              "type": "string"
            },
            {
              "internalType": "enum BlocTick.EventVisibility",
              "name": "visibility",
              "type": "uint8"
            },
            {
              "internalType": "enum BlocTick.VenueType",
              "name": "venue_type",
              "type": "uint8"
            },
            {
              "internalType": "string",
              "name": "venue",
              "type": "string"
            },
            {
              "internalType": "string",
              "name": "cover_image_url",
              "type": "string"
            }
          ],
          "internalType": "struct BlocTick.EventData",
          "name": "eventData",
          "type": "tuple"
        }
      ],
      "name": "setEventData",
      "outputs": [],
      "stateMutability": "nonpayable",
      "type": "function"
    },
    {
      "inputs": [
        {
          "components": [
            {
              "internalType": "string",
              "name": "name",
              "type": "string"
            },
            {
              "internalType": "string",
              "name": "description",
              "type": "string"
            },
            {
              "internalType": "enum BlocTick.TicketType",
              "name": "ticket_type",
              "type": "uint8"
            },
            {
              "internalType": "uint256",
              "name": "quantity_available",
              "type": "uint256"
            },
            {
              "internalType": "uint256",
              "name": "price",
              "type": "uint256"
            }
          ],
          "internalType": "struct BlocTick.Ticket[]",
          "name": "tickets",
          "type": "tuple[]"
        },
        {
          "internalType": "address",
          "name": "caller",
          "type": "address"
        }
      ],
      "name": "storeTickets",
      "outputs": [],
      "stateMutability": "nonpayable",
      "type": "function"
    },
    {
      "inputs": [
        {
          "internalType": "string",
          "name": "__status",
          "type": "string"
        }
      ],
      "name": "setStatus",
      "outputs": [],
      "stateMutability": "nonpayable",
      "type": "function"
    },
    {
      "inputs": [
        {
          "internalType": "address",
          "name": "caller",
          "type": "address"
        }
      ],
      "name": "getMyTickets",
      "outputs": [
        {
          "components": [
            {
              "internalType": "string",
              "name": "purchaseId",
              "type": "string"
            },
            {
              "internalType": "address",
              "name": "buyer",
              "type": "address"
            },
            {
              "internalType": "uint256",
              "name": "tokenId",
              "type": "uint256"
            },
            {
              "internalType": "uint256",
              "name": "ticketId",
              "type": "uint256"
            },
            {
              "internalType": "uint256",
              "name": "cost",
              "type": "uint256"
            }
          ],
          "internalType": "struct BlocTick.SuccessfulPurchase[]",
          "name": "result",
          "type": "tuple[]"
        }
      ],
      "stateMutability": "view",
      "type": "function"
    }
  ],
  "bytecode": "0x60806040523480156200001157600080fd5b5060405162004983380380620049838339818101604052810190620000379190620003ff565b82828160009080519060200190620000519291906200014d565b5080600190805190602001906200006a9291906200014d565b50505033600d60006101000a81548173ffffffffffffffffffffffffffffffffffffffff021916908373ffffffffffffffffffffffffffffffffffffffff16021790555080600a60006101000a81548173ffffffffffffffffffffffffffffffffffffffff021916908373ffffffffffffffffffffffffffffffffffffffff16021790555042600b819055506040518060400160405280600681526020017f6163746976650000000000000000000000000000000000000000000000000000815250600c9080519060200190620001439291906200014d565b50505050620004fd565b8280546200015b90620004c8565b90600052602060002090601f0160209004810192826200017f5760008555620001cb565b82601f106200019a57805160ff1916838001178555620001cb565b82800160010185558215620001cb579182015b82811115620001ca578251825591602001919060010190620001ad565b5b509050620001da9190620001de565b5090565b5b80821115620001f9576000816000905550600101620001df565b5090565b6000604051905090565b600080fd5b600080fd5b600080fd5b600080fd5b6000601f19601f8301169050919050565b7f4e487b7100000000000000000000000000000000000000000000000000000000600052604160045260246000fd5b62000266826200021b565b810181811067ffffffffffffffff821117156200028857620002876200022c565b5b80604052505050565b60006200029d620001fd565b9050620002ab82826200025b565b919050565b600067ffffffffffffffff821115620002ce57620002cd6200022c565b5b620002d9826200021b565b9050602081019050919050565b60005b8381101562000306578082015181840152602081019050620002e9565b8381111562000316576000848401525b50505050565b6000620003336200032d84620002b0565b62000291565b90508281526020810184848401111562000352576200035162000216565b5b6200035f848285620002e6565b509392505050565b600082601f8301126200037f576200037e62000211565b5b8151620003918482602086016200031c565b91505092915050565b600073ffffffffffffffffffffffffffffffffffffffff82169050919050565b6000620003c7826200039a565b9050919050565b620003d981620003ba565b8114620003e557600080fd5b50565b600081519050620003f981620003ce565b92915050565b6000806000606084860312156200041b576200041a62000207565b5b600084015167ffffffffffffffff8111156200043c576200043b6200020c565b5b6200044a8682870162000367565b935050602084015167ffffffffffffffff8111156200046e576200046d6200020c565b5b6200047c8682870162000367565b92505060406200048f86828701620003e8565b9150509250925092565b7f4e487b7100000000000000000000000000000000000000000000000000000000600052602260045260246000fd5b60006002820490506001821680620004e157607f821691505b602082108103620004f757620004f662000499565b5b50919050565b614476806200050d6000396000f3fe60806040526004361061012a5760003560e01c806370a08231116100ab578063b2bdfa7b1161006f578063b2bdfa7b14610400578063b88d4fde1461042b578063c63197ce14610454578063c87b56dd14610470578063e985e9c5146104ad578063f8547079146104ea5761012a565b806370a08231146103095780637d2211d6146103465780638aaf26861461036f57806395d89b41146103ac578063a22cb465146103d75761012a565b806323b872dd116100f257806323b872dd146102285780633d181c7e1461025157806342842e0e1461027a5780636352211e146102a35780636f269226146102e05761012a565b806301ffc9a71461012f57806306fdde031461016c578063081812fc14610197578063095ea7b3146101d45780630fb3844c146101fd575b600080fd5b34801561013b57600080fd5b506101566004803603810190610151919061278e565b610515565b60405161016391906127d6565b60405180910390f35b34801561017857600080fd5b506101816105f7565b60405161018e919061288a565b60405180910390f35b3480156101a357600080fd5b506101be60048036038101906101b991906128e2565b610689565b6040516101cb9190612950565b60405180910390f35b3480156101e057600080fd5b506101fb60048036038101906101f69190612997565b61070e565b005b34801561020957600080fd5b50610212610825565b60405161021f919061288a565b60405180910390f35b34801561023457600080fd5b5061024f600480360381019061024a91906129d7565b6108b3565b005b34801561025d57600080fd5b5061027860048036038101906102739190612d38565b610913565b005b34801561028657600080fd5b506102a1600480360381019061029c91906129d7565b610a4d565b005b3480156102af57600080fd5b506102ca60048036038101906102c591906128e2565b610a6d565b6040516102d79190612950565b60405180910390f35b3480156102ec57600080fd5b5061030760048036038101906103029190612fe6565b610b1e565b005b34801561031557600080fd5b50610330600480360381019061032b919061302f565b610c8f565b60405161033d919061306b565b60405180910390f35b34801561035257600080fd5b5061036d60048036038101906103689190613086565b610d46565b005b34801561037b57600080fd5b506103966004803603810190610391919061302f565b610df0565b6040516103a3919061326f565b60405180910390f35b3480156103b857600080fd5b506103c1610fc6565b6040516103ce919061288a565b60405180910390f35b3480156103e357600080fd5b506103fe60048036038101906103f991906132bd565b611058565b005b34801561040c57600080fd5b5061041561106e565b6040516104229190612950565b60405180910390f35b34801561043757600080fd5b50610452600480360381019061044d919061339e565b611094565b005b61046e600480360381019061046991906135c6565b6110f6565b005b34801561047c57600080fd5b50610497600480360381019061049291906128e2565b611350565b6040516104a4919061288a565b60405180910390f35b3480156104b957600080fd5b506104d460048036038101906104cf919061360f565b6114a1565b6040516104e191906127d6565b60405180910390f35b3480156104f657600080fd5b506104ff611535565b60405161050c919061306b565b60405180910390f35b60007f80ac58cd000000000000000000000000000000000000000000000000000000007bffffffffffffffffffffffffffffffffffffffffffffffffffffffff1916827bffffffffffffffffffffffffffffffffffffffffffffffffffffffff191614806105e057507f5b5e139f000000000000000000000000000000000000000000000000000000007bffffffffffffffffffffffffffffffffffffffffffffffffffffffff1916827bffffffffffffffffffffffffffffffffffffffffffffffffffffffff1916145b806105f057506105ef8261153b565b5b9050919050565b6060600080546106069061367e565b80601f01602080910402602001604051908101604052809291908181526020018280546106329061367e565b801561067f5780601f106106545761010080835404028352916020019161067f565b820191906000526020600020905b81548152906001019060200180831161066257829003601f168201915b5050505050905090565b6000610694826115a5565b6106d3576040517f08c379a00000000000000000000000000000000000000000000000000000000081526004016106ca90613721565b60405180910390fd5b6004600083815260200190815260200160002060009054906101000a900473ffffffffffffffffffffffffffffffffffffffff169050919050565b600061071982610a6d565b90508073ffffffffffffffffffffffffffffffffffffffff168373ffffffffffffffffffffffffffffffffffffffff1603610789576040517f08c379a0000000000000000000000000000000000000000000000000000000008152600401610780906137b3565b60405180910390fd5b8073ffffffffffffffffffffffffffffffffffffffff166107a8611611565b73ffffffffffffffffffffffffffffffffffffffff1614806107d757506107d6816107d1611611565b6114a1565b5b610816576040517f08c379a000000000000000000000000000000000000000000000000000000000815260040161080d90613845565b60405180910390fd5b6108208383611619565b505050565b600c80546108329061367e565b80601f016020809104026020016040519081016040528092919081815260200182805461085e9061367e565b80156108ab5780601f10610880576101008083540402835291602001916108ab565b820191906000526020600020905b81548152906001019060200180831161088e57829003601f168201915b505050505081565b6108c46108be611611565b826116d2565b610903576040517f08c379a00000000000000000000000000000000000000000000000000000000081526004016108fa906138d7565b60405180910390fd5b61090e8383836117b0565b505050565b600d60009054906101000a900473ffffffffffffffffffffffffffffffffffffffff1673ffffffffffffffffffffffffffffffffffffffff163373ffffffffffffffffffffffffffffffffffffffff16146109a3576040517f08c379a000000000000000000000000000000000000000000000000000000000815260040161099a90613943565b60405180910390fd5b80600a60009054906101000a900473ffffffffffffffffffffffffffffffffffffffff1673ffffffffffffffffffffffffffffffffffffffff168173ffffffffffffffffffffffffffffffffffffffff1614610a34576040517f08c379a0000000000000000000000000000000000000000000000000000000008152600401610a2b906139af565b60405180910390fd5b610a48836008611a1690919063ffffffff16565b505050565b610a6883838360405180602001604052806000815250611094565b505050565b6000806002600084815260200190815260200160002060009054906101000a900473ffffffffffffffffffffffffffffffffffffffff169050600073ffffffffffffffffffffffffffffffffffffffff168173ffffffffffffffffffffffffffffffffffffffff1603610b15576040517f08c379a0000000000000000000000000000000000000000000000000000000008152600401610b0c90613a41565b60405180910390fd5b80915050919050565b80600e6000820151816000019080519060200190610b3d92919061267f565b506020820151816001019080519060200190610b5a92919061267f565b506040820151816002019080519060200190610b7792919061267f565b506060820151816003019080519060200190610b9492919061267f565b506080820151816004019080519060200190610bb192919061267f565b5060a0820151816005019080519060200190610bce92919061267f565b5060c0820151816006019080519060200190610beb92919061267f565b5060e08201518160070160006101000a81548160ff02191690836001811115610c1757610c16613a61565b5b02179055506101008201518160070160016101000a81548160ff02191690836001811115610c4857610c47613a61565b5b0217905550610120820151816008019080519060200190610c6a92919061267f565b50610140820151816009019080519060200190610c8892919061267f565b5090505050565b60008073ffffffffffffffffffffffffffffffffffffffff168273ffffffffffffffffffffffffffffffffffffffff1603610cff576040517f08c379a0000000000000000000000000000000000000000000000000000000008152600401610cf690613b02565b60405180910390fd5b600360008373ffffffffffffffffffffffffffffffffffffffff1673ffffffffffffffffffffffffffffffffffffffff168152602001908152602001600020549050919050565b600d60009054906101000a900473ffffffffffffffffffffffffffffffffffffffff1673ffffffffffffffffffffffffffffffffffffffff163373ffffffffffffffffffffffffffffffffffffffff1614610dd6576040517f08c379a0000000000000000000000000000000000000000000000000000000008152600401610dcd90613943565b60405180910390fd5b80600c9080519060200190610dec92919061267f565b5050565b6060600080610dfe84610c8f565b03610e095750610fc1565b60005b610e166007611bda565b8111610fbe578373ffffffffffffffffffffffffffffffffffffffff16610e3c82610a6d565b73ffffffffffffffffffffffffffffffffffffffff1603610fab57600860010160008281526020019081526020016000206040518060a0016040529081600082018054610e889061367e565b80601f0160208091040260200160405190810160405280929190818152602001828054610eb49061367e565b8015610f015780601f10610ed657610100808354040283529160200191610f01565b820191906000526020600020905b815481529060010190602001808311610ee457829003601f168201915b505050505081526020016001820160009054906101000a900473ffffffffffffffffffffffffffffffffffffffff1673ffffffffffffffffffffffffffffffffffffffff1673ffffffffffffffffffffffffffffffffffffffff1681526020016002820154815260200160038201548152602001600482015481525050838381518110610f9157610f90613b22565b5b60200260200101819052508180610fa790613b80565b9250505b8080610fb690613b80565b915050610e0c565b50505b919050565b606060018054610fd59061367e565b80601f01602080910402602001604051908101604052809291908181526020018280546110019061367e565b801561104e5780601f106110235761010080835404028352916020019161104e565b820191906000526020600020905b81548152906001019060200180831161103157829003601f168201915b5050505050905090565b61106a611063611611565b8383611be8565b5050565b600a60009054906101000a900473ffffffffffffffffffffffffffffffffffffffff1681565b6110a561109f611611565b836116d2565b6110e4576040517f08c379a00000000000000000000000000000000000000000000000000000000081526004016110db906138d7565b60405180910390fd5b6110f084848484611d54565b50505050565b600d60009054906101000a900473ffffffffffffffffffffffffffffffffffffffff1673ffffffffffffffffffffffffffffffffffffffff163373ffffffffffffffffffffffffffffffffffffffff1614611186576040517f08c379a000000000000000000000000000000000000000000000000000000000815260040161117d90613943565b60405180910390fd5b61119a816008611db090919063ffffffff16565b3410156111dc576040517f08c379a00000000000000000000000000000000000000000000000000000000081526004016111d390613c14565b60405180910390fd5b60005b815181101561134c5760008282815181106111fd576111fc613b22565b5b6020026020010151905060006112136007611bda565b905061121f3082611fe8565b61122960076121c1565b6112378183604001516121d7565b6040518060a0016040528083600001518152602001836060015173ffffffffffffffffffffffffffffffffffffffff1681526020018281526020018360200151815260200183608001518152506008600101600083815260200190815260200160002060008201518160000190805190602001906112b692919061267f565b5060208201518160010160006101000a81548173ffffffffffffffffffffffffffffffffffffffff021916908373ffffffffffffffffffffffffffffffffffffffff1602179055506040820151816002015560608201518160030155608082015181600401559050506113288161224b565b5061133781836060015161229e565b5050808061134490613b80565b9150506111df565b5050565b606061135b826115a5565b61139a576040517f08c379a000000000000000000000000000000000000000000000000000000000815260040161139190613ca6565b60405180910390fd5b60006006600084815260200190815260200160002080546113ba9061367e565b80601f01602080910402602001604051908101604052809291908181526020018280546113e69061367e565b80156114335780601f1061140857610100808354040283529160200191611433565b820191906000526020600020905b81548152906001019060200180831161141657829003601f168201915b5050505050905060006114446122ad565b9050600081510361145957819250505061149c565b60008251111561148e578082604051602001611476929190613d02565b6040516020818303038152906040529250505061149c565b611497846122c4565b925050505b919050565b6000600560008473ffffffffffffffffffffffffffffffffffffffff1673ffffffffffffffffffffffffffffffffffffffff16815260200190815260200160002060008373ffffffffffffffffffffffffffffffffffffffff1673ffffffffffffffffffffffffffffffffffffffff16815260200190815260200160002060009054906101000a900460ff16905092915050565b600b5481565b60007f01ffc9a7000000000000000000000000000000000000000000000000000000007bffffffffffffffffffffffffffffffffffffffffffffffffffffffff1916827bffffffffffffffffffffffffffffffffffffffffffffffffffffffff1916149050919050565b60008073ffffffffffffffffffffffffffffffffffffffff166002600084815260200190815260200160002060009054906101000a900473ffffffffffffffffffffffffffffffffffffffff1673ffffffffffffffffffffffffffffffffffffffff1614159050919050565b600033905090565b816004600083815260200190815260200160002060006101000a81548173ffffffffffffffffffffffffffffffffffffffff021916908373ffffffffffffffffffffffffffffffffffffffff160217905550808273ffffffffffffffffffffffffffffffffffffffff1661168c83610a6d565b73ffffffffffffffffffffffffffffffffffffffff167f8c5be1e5ebec7d5bd14f71427d1e84f3dd0314c0f7b2291e5b200ac8c7c3b92560405160405180910390a45050565b60006116dd826115a5565b61171c576040517f08c379a000000000000000000000000000000000000000000000000000000000815260040161171390613d98565b60405180910390fd5b600061172783610a6d565b90508073ffffffffffffffffffffffffffffffffffffffff168473ffffffffffffffffffffffffffffffffffffffff16148061179657508373ffffffffffffffffffffffffffffffffffffffff1661177e84610689565b73ffffffffffffffffffffffffffffffffffffffff16145b806117a757506117a681856114a1565b5b91505092915050565b8273ffffffffffffffffffffffffffffffffffffffff166117d082610a6d565b73ffffffffffffffffffffffffffffffffffffffff1614611826576040517f08c379a000000000000000000000000000000000000000000000000000000000815260040161181d90613e2a565b60405180910390fd5b600073ffffffffffffffffffffffffffffffffffffffff168273ffffffffffffffffffffffffffffffffffffffff1603611895576040517f08c379a000000000000000000000000000000000000000000000000000000000815260040161188c90613ebc565b60405180910390fd5b6118a083838361236b565b6118ab600082611619565b6001600360008573ffffffffffffffffffffffffffffffffffffffff1673ffffffffffffffffffffffffffffffffffffffff16815260200190815260200160002060008282546118fb9190613edc565b925050819055506001600360008473ffffffffffffffffffffffffffffffffffffffff1673ffffffffffffffffffffffffffffffffffffffff16815260200190815260200160002060008282546119529190613f10565b92505081905550816002600083815260200190815260200160002060006101000a81548173ffffffffffffffffffffffffffffffffffffffff021916908373ffffffffffffffffffffffffffffffffffffffff160217905550808273ffffffffffffffffffffffffffffffffffffffff168473ffffffffffffffffffffffffffffffffffffffff167fddf252ad1be2c89b69c2b068fc378daa952ba7f163c4a11628f55a4df523b3ef60405160405180910390a4611a11838383612370565b505050565b60005b8151811015611bd5576000828281518110611a3757611a36613b22565b5b6020026020010151905060006002811115611a5557611a54613a61565b5b81604001516002811115611a6c57611a6b613a61565b5b108015611aa05750600280811115611a8757611a86613a61565b5b81604001516002811115611a9e57611a9d613a61565b5b115b15611ad757600081604001906002811115611abe57611abd613a61565b5b90816002811115611ad257611ad1613a61565b5b815250505b60006002811115611aeb57611aea613a61565b5b81604001516002811115611b0257611b01613a61565b5b03611b135760008160800181815250505b836000018190806001815401808255809150506001900390600052602060002090600502016000909190919091506000820151816000019080519060200190611b5d92919061267f565b506020820151816001019080519060200190611b7a92919061267f565b5060408201518160020160006101000a81548160ff02191690836002811115611ba657611ba5613a61565b5b021790555060608201518160030155608082015181600401555050508080611bcd90613b80565b915050611a19565b505050565b600081600001549050919050565b8173ffffffffffffffffffffffffffffffffffffffff168373ffffffffffffffffffffffffffffffffffffffff1603611c56576040517f08c379a0000000000000000000000000000000000000000000000000000000008152600401611c4d90613fb2565b60405180910390fd5b80600560008573ffffffffffffffffffffffffffffffffffffffff1673ffffffffffffffffffffffffffffffffffffffff16815260200190815260200160002060008473ffffffffffffffffffffffffffffffffffffffff1673ffffffffffffffffffffffffffffffffffffffff16815260200190815260200160002060006101000a81548160ff0219169083151502179055508173ffffffffffffffffffffffffffffffffffffffff168373ffffffffffffffffffffffffffffffffffffffff167f17307eab39ab6107e8899845ad3d59bd9653f200f220920489ca2b5937696c3183604051611d4791906127d6565b60405180910390a3505050565b611d5f8484846117b0565b611d6b84848484612375565b611daa576040517f08c379a0000000000000000000000000000000000000000000000000000000008152600401611da190614044565b60405180910390fd5b50505050565b600080600090505b8251811015611fe157600084600001848381518110611dda57611dd9613b22565b5b60200260200101516020015181548110611df757611df6613b22565b5b90600052602060002090600502016040518060a0016040529081600082018054611e209061367e565b80601f0160208091040260200160405190810160405280929190818152602001828054611e4c9061367e565b8015611e995780601f10611e6e57610100808354040283529160200191611e99565b820191906000526020600020905b815481529060010190602001808311611e7c57829003601f168201915b50505050508152602001600182018054611eb29061367e565b80601f0160208091040260200160405190810160405280929190818152602001828054611ede9061367e565b8015611f2b5780601f10611f0057610100808354040283529160200191611f2b565b820191906000526020600020905b815481529060010190602001808311611f0e57829003601f168201915b505050505081526020016002820160009054906101000a900460ff166002811115611f5957611f58613a61565b5b6002811115611f6b57611f6a613a61565b5b8152602001600382015481526020016004820154815250509050600280811115611f9857611f97613a61565b5b81604001516002811115611faf57611fae613a61565b5b03611fba5750611fce565b806080015183611fca9190613f10565b9250505b8080611fd990613b80565b915050611db8565b5092915050565b600073ffffffffffffffffffffffffffffffffffffffff168273ffffffffffffffffffffffffffffffffffffffff1603612057576040517f08c379a000000000000000000000000000000000000000000000000000000000815260040161204e906140b0565b60405180910390fd5b612060816115a5565b156120a0576040517f08c379a00000000000000000000000000000000000000000000000000000000081526004016120979061411c565b60405180910390fd5b6120ac6000838361236b565b6001600360008473ffffffffffffffffffffffffffffffffffffffff1673ffffffffffffffffffffffffffffffffffffffff16815260200190815260200160002060008282546120fc9190613f10565b92505081905550816002600083815260200190815260200160002060006101000a81548173ffffffffffffffffffffffffffffffffffffffff021916908373ffffffffffffffffffffffffffffffffffffffff160217905550808273ffffffffffffffffffffffffffffffffffffffff16600073ffffffffffffffffffffffffffffffffffffffff167fddf252ad1be2c89b69c2b068fc378daa952ba7f163c4a11628f55a4df523b3ef60405160405180910390a46121bd60008383612370565b5050565b6001816000016000828254019250508190555050565b6121e0826115a5565b61221f576040517f08c379a0000000000000000000000000000000000000000000000000000000008152600401612216906141ae565b60405180910390fd5b8060066000848152602001908152602001600020908051906020019061224692919061267f565b505050565b6000612256826115a5565b612295576040517f08c379a000000000000000000000000000000000000000000000000000000000815260040161228c9061421a565b60405180910390fd5b60019050919050565b6122a93082846117b0565b5050565b606060405180602001604052806000815250905090565b60606122cf826115a5565b61230e576040517f08c379a0000000000000000000000000000000000000000000000000000000008152600401612305906142ac565b60405180910390fd5b60006123186122ad565b905060008151116123385760405180602001604052806000815250612363565b80612342846124fc565b604051602001612353929190613d02565b6040516020818303038152906040525b915050919050565b505050565b505050565b60006123968473ffffffffffffffffffffffffffffffffffffffff1661265c565b156124ef578373ffffffffffffffffffffffffffffffffffffffff1663150b7a026123bf611611565b8786866040518563ffffffff1660e01b81526004016123e19493929190614321565b6020604051808303816000875af192505050801561241d57506040513d601f19601f8201168201806040525081019061241a9190614382565b60015b61249f573d806000811461244d576040519150601f19603f3d011682016040523d82523d6000602084013e612452565b606091505b506000815103612497576040517f08c379a000000000000000000000000000000000000000000000000000000000815260040161248e90614044565b60405180910390fd5b805181602001fd5b63150b7a0260e01b7bffffffffffffffffffffffffffffffffffffffffffffffffffffffff1916817bffffffffffffffffffffffffffffffffffffffffffffffffffffffff1916149150506124f4565b600190505b949350505050565b606060008203612543576040518060400160405280600181526020017f30000000000000000000000000000000000000000000000000000000000000008152509050612657565b600082905060005b6000821461257557808061255e90613b80565b915050600a8261256e91906143de565b915061254b565b60008167ffffffffffffffff81111561259157612590612a2f565b5b6040519080825280601f01601f1916602001820160405280156125c35781602001600182028036833780820191505090505b5090505b60008514612650576001826125dc9190613edc565b9150600a856125eb919061440f565b60306125f79190613f10565b60f81b81838151811061260d5761260c613b22565b5b60200101907effffffffffffffffffffffffffffffffffffffffffffffffffffffffffffff1916908160001a905350600a8561264991906143de565b94506125c7565b8093505050505b919050565b6000808273ffffffffffffffffffffffffffffffffffffffff163b119050919050565b82805461268b9061367e565b90600052602060002090601f0160209004810192826126ad57600085556126f4565b82601f106126c657805160ff19168380011785556126f4565b828001600101855582156126f4579182015b828111156126f35782518255916020019190600101906126d8565b5b5090506127019190612705565b5090565b5b8082111561271e576000816000905550600101612706565b5090565b6000604051905090565b600080fd5b600080fd5b60007fffffffff0000000000000000000000000000000000000000000000000000000082169050919050565b61276b81612736565b811461277657600080fd5b50565b60008135905061278881612762565b92915050565b6000602082840312156127a4576127a361272c565b5b60006127b284828501612779565b91505092915050565b60008115159050919050565b6127d0816127bb565b82525050565b60006020820190506127eb60008301846127c7565b92915050565b600081519050919050565b600082825260208201905092915050565b60005b8381101561282b578082015181840152602081019050612810565b8381111561283a576000848401525b50505050565b6000601f19601f8301169050919050565b600061285c826127f1565b61286681856127fc565b935061287681856020860161280d565b61287f81612840565b840191505092915050565b600060208201905081810360008301526128a48184612851565b905092915050565b6000819050919050565b6128bf816128ac565b81146128ca57600080fd5b50565b6000813590506128dc816128b6565b92915050565b6000602082840312156128f8576128f761272c565b5b6000612906848285016128cd565b91505092915050565b600073ffffffffffffffffffffffffffffffffffffffff82169050919050565b600061293a8261290f565b9050919050565b61294a8161292f565b82525050565b60006020820190506129656000830184612941565b92915050565b6129748161292f565b811461297f57600080fd5b50565b6000813590506129918161296b565b92915050565b600080604083850312156129ae576129ad61272c565b5b60006129bc85828601612982565b92505060206129cd858286016128cd565b9150509250929050565b6000806000606084860312156129f0576129ef61272c565b5b60006129fe86828701612982565b9350506020612a0f86828701612982565b9250506040612a20868287016128cd565b9150509250925092565b600080fd5b7f4e487b7100000000000000000000000000000000000000000000000000000000600052604160045260246000fd5b612a6782612840565b810181811067ffffffffffffffff82111715612a8657612a85612a2f565b5b80604052505050565b6000612a99612722565b9050612aa58282612a5e565b919050565b600067ffffffffffffffff821115612ac557612ac4612a2f565b5b602082029050602081019050919050565b600080fd5b600080fd5b600080fd5b600080fd5b600067ffffffffffffffff821115612b0557612b04612a2f565b5b612b0e82612840565b9050602081019050919050565b82818337600083830152505050565b6000612b3d612b3884612aea565b612a8f565b905082815260208101848484011115612b5957612b58612ae5565b5b612b64848285612b1b565b509392505050565b600082601f830112612b8157612b80612a2a565b5b8135612b91848260208601612b2a565b91505092915050565b60038110612ba757600080fd5b50565b600081359050612bb981612b9a565b92915050565b600060a08284031215612bd557612bd4612adb565b5b612bdf60a0612a8f565b9050600082013567ffffffffffffffff811115612bff57612bfe612ae0565b5b612c0b84828501612b6c565b600083015250602082013567ffffffffffffffff811115612c2f57612c2e612ae0565b5b612c3b84828501612b6c565b6020830152506040612c4f84828501612baa565b6040830152506060612c63848285016128cd565b6060830152506080612c77848285016128cd565b60808301525092915050565b6000612c96612c9184612aaa565b612a8f565b90508083825260208201905060208402830185811115612cb957612cb8612ad6565b5b835b81811015612d0057803567ffffffffffffffff811115612cde57612cdd612a2a565b5b808601612ceb8982612bbf565b85526020850194505050602081019050612cbb565b5050509392505050565b600082601f830112612d1f57612d1e612a2a565b5b8135612d2f848260208601612c83565b91505092915050565b60008060408385031215612d4f57612d4e61272c565b5b600083013567ffffffffffffffff811115612d6d57612d6c612731565b5b612d7985828601612d0a565b9250506020612d8a85828601612982565b9150509250929050565b60028110612da157600080fd5b50565b600081359050612db381612d94565b92915050565b60028110612dc657600080fd5b50565b600081359050612dd881612db9565b92915050565b60006101608284031215612df557612df4612adb565b5b612e00610160612a8f565b9050600082013567ffffffffffffffff811115612e2057612e1f612ae0565b5b612e2c84828501612b6c565b600083015250602082013567ffffffffffffffff811115612e5057612e4f612ae0565b5b612e5c84828501612b6c565b602083015250604082013567ffffffffffffffff811115612e8057612e7f612ae0565b5b612e8c84828501612b6c565b604083015250606082013567ffffffffffffffff811115612eb057612eaf612ae0565b5b612ebc84828501612b6c565b606083015250608082013567ffffffffffffffff811115612ee057612edf612ae0565b5b612eec84828501612b6c565b60808301525060a082013567ffffffffffffffff811115612f1057612f0f612ae0565b5b612f1c84828501612b6c565b60a08301525060c082013567ffffffffffffffff811115612f4057612f3f612ae0565b5b612f4c84828501612b6c565b60c08301525060e0612f6084828501612da4565b60e083015250610100612f7584828501612dc9565b6101008301525061012082013567ffffffffffffffff811115612f9b57612f9a612ae0565b5b612fa784828501612b6c565b6101208301525061014082013567ffffffffffffffff811115612fcd57612fcc612ae0565b5b612fd984828501612b6c565b6101408301525092915050565b600060208284031215612ffc57612ffb61272c565b5b600082013567ffffffffffffffff81111561301a57613019612731565b5b61302684828501612dde565b91505092915050565b6000602082840312156130455761304461272c565b5b600061305384828501612982565b91505092915050565b613065816128ac565b82525050565b6000602082019050613080600083018461305c565b92915050565b60006020828403121561309c5761309b61272c565b5b600082013567ffffffffffffffff8111156130ba576130b9612731565b5b6130c684828501612b6c565b91505092915050565b600081519050919050565b600082825260208201905092915050565b6000819050602082019050919050565b600082825260208201905092915050565b6000613117826127f1565b61312181856130fb565b935061313181856020860161280d565b61313a81612840565b840191505092915050565b61314e8161292f565b82525050565b61315d816128ac565b82525050565b600060a0830160008301518482036000860152613180828261310c565b91505060208301516131956020860182613145565b5060408301516131a86040860182613154565b5060608301516131bb6060860182613154565b5060808301516131ce6080860182613154565b508091505092915050565b60006131e58383613163565b905092915050565b6000602082019050919050565b6000613205826130cf565b61320f81856130da565b935083602082028501613221856130eb565b8060005b8581101561325d578484038952815161323e85826131d9565b9450613249836131ed565b925060208a01995050600181019050613225565b50829750879550505050505092915050565b6000602082019050818103600083015261328981846131fa565b905092915050565b61329a816127bb565b81146132a557600080fd5b50565b6000813590506132b781613291565b92915050565b600080604083850312156132d4576132d361272c565b5b60006132e285828601612982565b92505060206132f3858286016132a8565b9150509250929050565b600067ffffffffffffffff82111561331857613317612a2f565b5b61332182612840565b9050602081019050919050565b600061334161333c846132fd565b612a8f565b90508281526020810184848401111561335d5761335c612ae5565b5b613368848285612b1b565b509392505050565b600082601f83011261338557613384612a2a565b5b813561339584826020860161332e565b91505092915050565b600080600080608085870312156133b8576133b761272c565b5b60006133c687828801612982565b94505060206133d787828801612982565b93505060406133e8878288016128cd565b925050606085013567ffffffffffffffff81111561340957613408612731565b5b61341587828801613370565b91505092959194509250565b600067ffffffffffffffff82111561343c5761343b612a2f565b5b602082029050602081019050919050565b600060a0828403121561346357613462612adb565b5b61346d60a0612a8f565b9050600082013567ffffffffffffffff81111561348d5761348c612ae0565b5b61349984828501612b6c565b60008301525060206134ad848285016128cd565b602083015250604082013567ffffffffffffffff8111156134d1576134d0612ae0565b5b6134dd84828501612b6c565b60408301525060606134f184828501612982565b6060830152506080613505848285016128cd565b60808301525092915050565b600061352461351f84613421565b612a8f565b9050808382526020820190506020840283018581111561354757613546612ad6565b5b835b8181101561358e57803567ffffffffffffffff81111561356c5761356b612a2a565b5b808601613579898261344d565b85526020850194505050602081019050613549565b5050509392505050565b600082601f8301126135ad576135ac612a2a565b5b81356135bd848260208601613511565b91505092915050565b6000602082840312156135dc576135db61272c565b5b600082013567ffffffffffffffff8111156135fa576135f9612731565b5b61360684828501613598565b91505092915050565b600080604083850312156136265761362561272c565b5b600061363485828601612982565b925050602061364585828601612982565b9150509250929050565b7f4e487b7100000000000000000000000000000000000000000000000000000000600052602260045260246000fd5b6000600282049050600182168061369657607f821691505b6020821081036136a9576136a861364f565b5b50919050565b7f4552433732313a20617070726f76656420717565727920666f72206e6f6e657860008201527f697374656e7420746f6b656e0000000000000000000000000000000000000000602082015250565b600061370b602c836127fc565b9150613716826136af565b604082019050919050565b6000602082019050818103600083015261373a816136fe565b9050919050565b7f4552433732313a20617070726f76616c20746f2063757272656e74206f776e6560008201527f7200000000000000000000000000000000000000000000000000000000000000602082015250565b600061379d6021836127fc565b91506137a882613741565b604082019050919050565b600060208201905081810360008301526137cc81613790565b9050919050565b7f4552433732313a20617070726f76652063616c6c6572206973206e6f74206f7760008201527f6e6572206e6f7220617070726f76656420666f7220616c6c0000000000000000602082015250565b600061382f6038836127fc565b915061383a826137d3565b604082019050919050565b6000602082019050818103600083015261385e81613822565b9050919050565b7f4552433732313a207472616e736665722063616c6c6572206973206e6f74206f60008201527f776e6572206e6f7220617070726f766564000000000000000000000000000000602082015250565b60006138c16031836127fc565b91506138cc82613865565b604082019050919050565b600060208201905081810360008301526138f0816138b4565b9050919050565b7f596f75206e65656420746f207573652074686520666163746f72790000000000600082015250565b600061392d601b836127fc565b9150613938826138f7565b602082019050919050565b6000602082019050818103600083015261395c81613920565b9050919050565b7f4163636573732072657374726963746564210000000000000000000000000000600082015250565b60006139996012836127fc565b91506139a482613963565b602082019050919050565b600060208201905081810360008301526139c88161398c565b9050919050565b7f4552433732313a206f776e657220717565727920666f72206e6f6e657869737460008201527f656e7420746f6b656e0000000000000000000000000000000000000000000000602082015250565b6000613a2b6029836127fc565b9150613a36826139cf565b604082019050919050565b60006020820190508181036000830152613a5a81613a1e565b9050919050565b7f4e487b7100000000000000000000000000000000000000000000000000000000600052602160045260246000fd5b7f4552433732313a2062616c616e636520717565727920666f7220746865207a6560008201527f726f206164647265737300000000000000000000000000000000000000000000602082015250565b6000613aec602a836127fc565b9150613af782613a90565b604082019050919050565b60006020820190508181036000830152613b1b81613adf565b9050919050565b7f4e487b7100000000000000000000000000000000000000000000000000000000600052603260045260246000fd5b7f4e487b7100000000000000000000000000000000000000000000000000000000600052601160045260246000fd5b6000613b8b826128ac565b91507fffffffffffffffffffffffffffffffffffffffffffffffffffffffffffffffff8203613bbd57613bbc613b51565b5b600182019050919050565b7f546865207469636b65747320636f7374206d6f72650000000000000000000000600082015250565b6000613bfe6015836127fc565b9150613c0982613bc8565b602082019050919050565b60006020820190508181036000830152613c2d81613bf1565b9050919050565b7f45524337323155524953746f726167653a2055524920717565727920666f722060008201527f6e6f6e6578697374656e7420746f6b656e000000000000000000000000000000602082015250565b6000613c906031836127fc565b9150613c9b82613c34565b604082019050919050565b60006020820190508181036000830152613cbf81613c83565b9050919050565b600081905092915050565b6000613cdc826127f1565b613ce68185613cc6565b9350613cf681856020860161280d565b80840191505092915050565b6000613d0e8285613cd1565b9150613d1a8284613cd1565b91508190509392505050565b7f4552433732313a206f70657261746f7220717565727920666f72206e6f6e657860008201527f697374656e7420746f6b656e0000000000000000000000000000000000000000602082015250565b6000613d82602c836127fc565b9150613d8d82613d26565b604082019050919050565b60006020820190508181036000830152613db181613d75565b9050919050565b7f4552433732313a207472616e736665722066726f6d20696e636f72726563742060008201527f6f776e6572000000000000000000000000000000000000000000000000000000602082015250565b6000613e146025836127fc565b9150613e1f82613db8565b604082019050919050565b60006020820190508181036000830152613e4381613e07565b9050919050565b7f4552433732313a207472616e7366657220746f20746865207a65726f2061646460008201527f7265737300000000000000000000000000000000000000000000000000000000602082015250565b6000613ea66024836127fc565b9150613eb182613e4a565b604082019050919050565b60006020820190508181036000830152613ed581613e99565b9050919050565b6000613ee7826128ac565b9150613ef2836128ac565b925082821015613f0557613f04613b51565b5b828203905092915050565b6000613f1b826128ac565b9150613f26836128ac565b9250827fffffffffffffffffffffffffffffffffffffffffffffffffffffffffffffffff03821115613f5b57613f5a613b51565b5b828201905092915050565b7f4552433732313a20617070726f766520746f2063616c6c657200000000000000600082015250565b6000613f9c6019836127fc565b9150613fa782613f66565b602082019050919050565b60006020820190508181036000830152613fcb81613f8f565b9050919050565b7f4552433732313a207472616e7366657220746f206e6f6e20455243373231526560008201527f63656976657220696d706c656d656e7465720000000000000000000000000000602082015250565b600061402e6032836127fc565b915061403982613fd2565b604082019050919050565b6000602082019050818103600083015261405d81614021565b9050919050565b7f4552433732313a206d696e7420746f20746865207a65726f2061646472657373600082015250565b600061409a6020836127fc565b91506140a582614064565b602082019050919050565b600060208201905081810360008301526140c98161408d565b9050919050565b7f4552433732313a20746f6b656e20616c7265616479206d696e74656400000000600082015250565b6000614106601c836127fc565b9150614111826140d0565b602082019050919050565b60006020820190508181036000830152614135816140f9565b9050919050565b7f45524337323155524953746f726167653a2055524920736574206f66206e6f6e60008201527f6578697374656e7420746f6b656e000000000000000000000000000000000000602082015250565b6000614198602e836127fc565b91506141a38261413c565b604082019050919050565b600060208201905081810360008301526141c78161418b565b9050919050565b7f4572726f722c2077726f6e6720546f6b656e2069640000000000000000000000600082015250565b60006142046015836127fc565b915061420f826141ce565b602082019050919050565b60006020820190508181036000830152614233816141f7565b9050919050565b7f4552433732314d657461646174613a2055524920717565727920666f72206e6f60008201527f6e6578697374656e7420746f6b656e0000000000000000000000000000000000602082015250565b6000614296602f836127fc565b91506142a18261423a565b604082019050919050565b600060208201905081810360008301526142c581614289565b9050919050565b600081519050919050565b600082825260208201905092915050565b60006142f3826142cc565b6142fd81856142d7565b935061430d81856020860161280d565b61431681612840565b840191505092915050565b60006080820190506143366000830187612941565b6143436020830186612941565b614350604083018561305c565b818103606083015261436281846142e8565b905095945050505050565b60008151905061437c81612762565b92915050565b6000602082840312156143985761439761272c565b5b60006143a68482850161436d565b91505092915050565b7f4e487b7100000000000000000000000000000000000000000000000000000000600052601260045260246000fd5b60006143e9826128ac565b91506143f4836128ac565b925082614404576144036143af565b5b828204905092915050565b600061441a826128ac565b9150614425836128ac565b925082614435576144346143af565b5b82820690509291505056fea2646970667358221220cbc0eb15dd3deb08c76e8e87b4c9a51b23529de158f12c5c69db9340b6013cd164736f6c634300080d0033",
  "immutableReferences": {},
  "source": "// SPDX-License-Identifier: GPL-3.0\npragma solidity >=0.6.0 <0.9.0;\n\nimport \"@openzeppelin/contracts/token/ERC721/ERC721.sol\";\nimport \"@openzeppelin/contracts/token/ERC721/extensions/ERC721URIStorage.sol\";\nimport \"@openzeppelin/contracts/utils/Counters.sol\";\nimport \"../library/TicketManager.sol\";\n\ncontract Event is ERC721URIStorage {\n    using Counters for Counters.Counter;\n    using TicketManager for TicketManager.Manager;\n    Counters.Counter tokenCounter;\n    TicketManager.Manager ticketManager;\n    address public _owner;\n    uint256 public _created_at;\n    string public _status;\n    address private _factory;\n    BlocTick.EventData _eventData;\n\n    modifier onlyFactory() {\n        require(msg.sender == _factory, \"You need to use the factory\");\n        _;\n    }\n\n    modifier onlyEventCreator(address caller) {\n        require(caller == _owner, \"Access restricted!\");\n        _;\n    }\n\n    constructor(\n        string memory name,\n        string memory ticker,\n        address __owner\n    ) ERC721(name, ticker) {\n        _factory = msg.sender;\n        _owner = __owner;\n        _created_at = block.timestamp;\n        _status = \"active\";\n    }\n\n    function _trade(uint256 _id, address __owner) internal {\n        _transfer(address(this), __owner, _id); //nft to user\n    }\n\n    function purchaseTickets(BlocTick.TicketPurchase[] memory purchases)\n        external\n        payable\n        onlyFactory\n    {\n        require(\n            msg.value >= ticketManager._getTotalCost(purchases),\n            \"The tickets cost more\"\n        );\n        for (uint256 i = 0; i < purchases.length; i++) {\n            BlocTick.TicketPurchase memory purchase = purchases[i];\n            uint256 _tokenId = tokenCounter.current();\n            _mint(address(this), _tokenId);\n            tokenCounter.increment();\n            _setTokenURI(_tokenId, purchase.tokenURI);\n            ticketManager._sales[_tokenId] = BlocTick.SuccessfulPurchase(\n                purchase.purchaseId,\n                purchase.buyer,\n                _tokenId,\n                purchase.ticketId,\n                purchase.cost\n            );\n            _validate(_tokenId);\n            _trade(_tokenId, purchase.buyer);\n        }\n    }\n\n    function setEventData(BlocTick.EventData memory eventData) external {\n        _eventData = eventData;\n    }\n\n    function storeTickets(BlocTick.Ticket[] memory tickets, address caller)\n        external\n        onlyFactory\n        onlyEventCreator(caller)\n    {\n        ticketManager._storeTickets(tickets);\n    }\n\n    function setStatus(string memory __status) external onlyFactory {\n        _status = __status;\n    }\n\n    function _validate(uint256 _id) internal view returns (bool) {\n        require(_exists(_id), \"Error, wrong Token id\");\n        return true;\n    }\n\n    function getMyTickets(address caller)\n        external\n        view\n        returns (BlocTick.SuccessfulPurchase[] memory result)\n    {\n        uint256 counter = 0;\n        if (balanceOf(caller) == 0) {\n            return result;\n        }\n        for (uint256 i = 0; i <= tokenCounter.current(); i++) {\n            if (ownerOf(i) == caller) {\n                result[counter] = ticketManager._sales[i];\n                counter++;\n            }\n        }\n        return result;\n    }\n}\n",
  "sourcePath": "/workspace/nft-ticketting-contracts/backend/contracts/Event.sol",
  "compiler": {
    "name": "solc",
    "version": "0.8.13+commit.abaa5c0e.Emscripten.clang"
  },
  "schemaVersion": "3.4.7",
  "updatedAt": "2022-04-14T01:10:37.158Z",
  "devdoc": {
    "kind": "dev",
    "methods": {
      "approve(address,uint256)": {
        "details": "See {IERC721-approve}."
      },
      "balanceOf(address)": {
        "details": "See {IERC721-balanceOf}."
      },
      "getApproved(uint256)": {
        "details": "See {IERC721-getApproved}."
      },
      "isApprovedForAll(address,address)": {
        "details": "See {IERC721-isApprovedForAll}."
      },
      "name()": {
        "details": "See {IERC721Metadata-name}."
      },
      "ownerOf(uint256)": {
        "details": "See {IERC721-ownerOf}."
      },
      "safeTransferFrom(address,address,uint256)": {
        "details": "See {IERC721-safeTransferFrom}."
      },
      "safeTransferFrom(address,address,uint256,bytes)": {
        "details": "See {IERC721-safeTransferFrom}."
      },
      "setApprovalForAll(address,bool)": {
        "details": "See {IERC721-setApprovalForAll}."
      },
      "supportsInterface(bytes4)": {
        "details": "See {IERC165-supportsInterface}."
      },
      "symbol()": {
        "details": "See {IERC721Metadata-symbol}."
      },
      "tokenURI(uint256)": {
        "details": "See {IERC721Metadata-tokenURI}."
      },
      "transferFrom(address,address,uint256)": {
        "details": "See {IERC721-transferFrom}."
      }
    },
    "version": 1
  },
  "userdoc": {
    "kind": "user",
    "methods": {},
    "version": 1
  }
}