{
  "contractName": "Platform",
  "abi": [
    {
      "inputs": [],
      "stateMutability": "nonpayable",
      "type": "constructor"
    },
    {
      "inputs": [],
      "name": "_owner",
      "outputs": [
        {
          "internalType": "address",
          "name": "",
          "type": "address"
        }
      ],
      "stateMutability": "view",
      "type": "function",
      "constant": true
    },
    {
      "inputs": [
        {
          "internalType": "address",
          "name": "eventContract",
          "type": "address"
        },
        {
          "components": [
            {
              "internalType": "uint256",
              "name": "ticketId",
              "type": "uint256"
            },
            {
              "internalType": "string",
              "name": "tokenURI",
              "type": "string"
            },
            {
              "internalType": "address",
              "name": "owner",
              "type": "address"
            }
          ],
          "internalType": "struct BlocTick.TicketPurchase[]",
          "name": "purchases",
          "type": "tuple[]"
        }
      ],
      "name": "mintTickets",
      "outputs": [],
      "stateMutability": "payable",
      "type": "function",
      "payable": true
    },
    {
      "inputs": [
        {
          "internalType": "uint256",
          "name": "fee",
          "type": "uint256"
        }
      ],
      "name": "setPlatformPercent",
      "outputs": [],
      "stateMutability": "nonpayable",
      "type": "function"
    },
    {
      "inputs": [
        {
          "internalType": "address",
          "name": "eventContract",
          "type": "address"
        },
        {
          "internalType": "string",
          "name": "status",
          "type": "string"
        }
      ],
      "name": "setEventStatus",
      "outputs": [],
      "stateMutability": "nonpayable",
      "type": "function"
    }
  ],
  "bytecode": "0x6080604052600a60015534801561001557600080fd5b50336000806101000a81548173ffffffffffffffffffffffffffffffffffffffff021916908373ffffffffffffffffffffffffffffffffffffffff160217905550610d05806100656000396000f3fe60806040526004361061003f5760003560e01c806367962c2714610044578063b2a81af71461006d578063b2bdfa7b14610089578063ff001b32146100b4575b600080fd5b34801561005057600080fd5b5061006b60048036038101906100669190610609565b6100dd565b005b6100876004803603810190610082919061080b565b6101da565b005b34801561009557600080fd5b5061009e610395565b6040516100ab9190610876565b60405180910390f35b3480156100c057600080fd5b506100db60048036038101906100d69190610891565b6103b9565b005b60008054906101000a900473ffffffffffffffffffffffffffffffffffffffff1673ffffffffffffffffffffffffffffffffffffffff163373ffffffffffffffffffffffffffffffffffffffff161461016b576040517f08c379a00000000000000000000000000000000000000000000000000000000081526004016101629061091b565b60405180910390fd5b8173ffffffffffffffffffffffffffffffffffffffff16637d2211d6826040518263ffffffff1660e01b81526004016101a491906109b2565b600060405180830381600087803b1580156101be57600080fd5b505af11580156101d2573d6000803e3d6000fd5b505050505050565b60008290508073ffffffffffffffffffffffffffffffffffffffff166352cc6be6836040518263ffffffff1660e01b81526004016102189190610b4e565b600060405180830381600087803b15801561023257600080fd5b505af1158015610246573d6000803e3d6000fd5b50505050600034606460015461025c9190610bce565b6102669190610bff565b90508173ffffffffffffffffffffffffffffffffffffffff1663b2bdfa7b6040518163ffffffff1660e01b8152600401602060405180830381865afa1580156102b3573d6000803e3d6000fd5b505050506040513d601f19601f820116820180604052508101906102d79190610c6e565b73ffffffffffffffffffffffffffffffffffffffff166108fc82346102fc9190610c9b565b9081150290604051600060405180830381858888f19350505050158015610327573d6000803e3d6000fd5b5060008054906101000a900473ffffffffffffffffffffffffffffffffffffffff1673ffffffffffffffffffffffffffffffffffffffff166108fc829081150290604051600060405180830381858888f1935050505015801561038e573d6000803e3d6000fd5b5050505050565b60008054906101000a900473ffffffffffffffffffffffffffffffffffffffff1681565b60008054906101000a900473ffffffffffffffffffffffffffffffffffffffff1673ffffffffffffffffffffffffffffffffffffffff163373ffffffffffffffffffffffffffffffffffffffff1614610447576040517f08c379a000000000000000000000000000000000000000000000000000000000815260040161043e9061091b565b60405180910390fd5b8060018190555050565b6000604051905090565b600080fd5b600080fd5b600073ffffffffffffffffffffffffffffffffffffffff82169050919050565b600061049082610465565b9050919050565b6104a081610485565b81146104ab57600080fd5b50565b6000813590506104bd81610497565b92915050565b600080fd5b600080fd5b6000601f19601f8301169050919050565b7f4e487b7100000000000000000000000000000000000000000000000000000000600052604160045260246000fd5b610516826104cd565b810181811067ffffffffffffffff82111715610535576105346104de565b5b80604052505050565b6000610548610451565b9050610554828261050d565b919050565b600067ffffffffffffffff821115610574576105736104de565b5b61057d826104cd565b9050602081019050919050565b82818337600083830152505050565b60006105ac6105a784610559565b61053e565b9050828152602081018484840111156105c8576105c76104c8565b5b6105d384828561058a565b509392505050565b600082601f8301126105f0576105ef6104c3565b5b8135610600848260208601610599565b91505092915050565b600080604083850312156106205761061f61045b565b5b600061062e858286016104ae565b925050602083013567ffffffffffffffff81111561064f5761064e610460565b5b61065b858286016105db565b9150509250929050565b600067ffffffffffffffff8211156106805761067f6104de565b5b602082029050602081019050919050565b600080fd5b600080fd5b600080fd5b6000819050919050565b6106b3816106a0565b81146106be57600080fd5b50565b6000813590506106d0816106aa565b92915050565b6000606082840312156106ec576106eb610696565b5b6106f6606061053e565b90506000610706848285016106c1565b600083015250602082013567ffffffffffffffff81111561072a5761072961069b565b5b610736848285016105db565b602083015250604061074a848285016104ae565b60408301525092915050565b600061076961076484610665565b61053e565b9050808382526020820190506020840283018581111561078c5761078b610691565b5b835b818110156107d357803567ffffffffffffffff8111156107b1576107b06104c3565b5b8086016107be89826106d6565b8552602085019450505060208101905061078e565b5050509392505050565b600082601f8301126107f2576107f16104c3565b5b8135610802848260208601610756565b91505092915050565b600080604083850312156108225761082161045b565b5b6000610830858286016104ae565b925050602083013567ffffffffffffffff81111561085157610850610460565b5b61085d858286016107dd565b9150509250929050565b61087081610485565b82525050565b600060208201905061088b6000830184610867565b92915050565b6000602082840312156108a7576108a661045b565b5b60006108b5848285016106c1565b91505092915050565b600082825260208201905092915050565b7f4163636573732072657374726963746564210000000000000000000000000000600082015250565b60006109056012836108be565b9150610910826108cf565b602082019050919050565b60006020820190508181036000830152610934816108f8565b9050919050565b600081519050919050565b60005b83811015610964578082015181840152602081019050610949565b83811115610973576000848401525b50505050565b60006109848261093b565b61098e81856108be565b935061099e818560208601610946565b6109a7816104cd565b840191505092915050565b600060208201905081810360008301526109cc8184610979565b905092915050565b600081519050919050565b600082825260208201905092915050565b6000819050602082019050919050565b610a09816106a0565b82525050565b600082825260208201905092915050565b6000610a2b8261093b565b610a358185610a0f565b9350610a45818560208601610946565b610a4e816104cd565b840191505092915050565b610a6281610485565b82525050565b6000606083016000830151610a806000860182610a00565b5060208301518482036020860152610a988282610a20565b9150506040830151610aad6040860182610a59565b508091505092915050565b6000610ac48383610a68565b905092915050565b6000602082019050919050565b6000610ae4826109d4565b610aee81856109df565b935083602082028501610b00856109f0565b8060005b85811015610b3c5784840389528151610b1d8582610ab8565b9450610b2883610acc565b925060208a01995050600181019050610b04565b50829750879550505050505092915050565b60006020820190508181036000830152610b688184610ad9565b905092915050565b7f4e487b7100000000000000000000000000000000000000000000000000000000600052601260045260246000fd5b7f4e487b7100000000000000000000000000000000000000000000000000000000600052601160045260246000fd5b6000610bd9826106a0565b9150610be4836106a0565b925082610bf457610bf3610b70565b5b828204905092915050565b6000610c0a826106a0565b9150610c15836106a0565b9250817fffffffffffffffffffffffffffffffffffffffffffffffffffffffffffffffff0483118215151615610c4e57610c4d610b9f565b5b828202905092915050565b600081519050610c6881610497565b92915050565b600060208284031215610c8457610c8361045b565b5b6000610c9284828501610c59565b91505092915050565b6000610ca6826106a0565b9150610cb1836106a0565b925082821015610cc457610cc3610b9f565b5b82820390509291505056fea2646970667358221220af024aac4485319a1512f6e0d87c13f98550259d56903ad33d50565da950409864736f6c634300080c0033",
  "immutableReferences": {},
  "source": "// SPDX-License-Identifier: GPL-3.0\npragma solidity >=0.6.0 <0.9.0;\n\nimport \"./EventFactory.sol\";\nimport \"./Administrator.sol\";\n\ncontract Platform is Administrator {\n    uint256 platform_percent = 10;\n\n    constructor() {\n        _owner = msg.sender;\n    }\n\n    function mintTickets(\n        address eventContract,\n        BlocTick.TicketPurchase[] memory purchases\n    ) external payable {\n        Event e = Event(eventContract);\n        e.mint(purchases);\n        uint256 platform_fee = (platform_percent / 100) * msg.value;\n        payable(e._owner()).transfer(msg.value - platform_fee);\n        payable(_owner).transfer(platform_fee);\n    }\n\n    function setPlatformPercent(uint256 fee) external onlyAdministrator {\n        platform_percent = fee;\n    }\n\n    function setEventStatus(address eventContract, string memory status)\n        external\n        onlyAdministrator\n    {\n        Event(eventContract).setStatus(status);\n    }\n}\n",
  "sourcePath": "/workspace/nft-ticketting-contracts/backend/contracts/Platform.sol",
  "compiler": {
    "name": "solc",
    "version": "0.8.12+commit.f00d7308.Emscripten.clang"
  },
  "schemaVersion": "3.4.5",
  "updatedAt": "2022-03-08T14:56:57.864Z",
  "networkType": "ethereum",
  "devdoc": {
    "kind": "dev",
    "methods": {},
    "version": 1
  },
  "userdoc": {
    "kind": "user",
    "methods": {},
    "version": 1
  }
}